{
  "_format": "hh-sol-artifact-1",
  "contractName": "Token",
  "sourceName": "contracts/mixer/FHErc20.sol",
  "abi": [
    {
      "inputs": [
        {
          "internalType": "string",
          "name": "name",
          "type": "string"
        },
        {
          "internalType": "string",
          "name": "symbol",
          "type": "string"
        }
      ],
      "stateMutability": "nonpayable",
      "type": "constructor"
    },
    {
      "inputs": [
        {
          "internalType": "address",
          "name": "",
          "type": "address"
        }
      ],
      "name": "ERC20InvalidApprover",
      "type": "error"
    },
    {
      "inputs": [
        {
          "internalType": "address",
          "name": "",
          "type": "address"
        }
      ],
      "name": "ERC20InvalidSpender",
      "type": "error"
    },
    {
      "inputs": [],
      "name": "ErrorInsufficientFunds",
      "type": "error"
    },
    {
      "inputs": [],
      "name": "InvalidShortString",
      "type": "error"
    },
    {
      "inputs": [],
      "name": "SignerNotMessageSender",
      "type": "error"
    },
    {
      "inputs": [],
      "name": "SignerNotOwner",
      "type": "error"
    },
    {
      "inputs": [
        {
          "internalType": "string",
          "name": "str",
          "type": "string"
        }
      ],
      "name": "StringTooLong",
      "type": "error"
    },
    {
      "anonymous": false,
      "inputs": [
        {
          "indexed": true,
          "internalType": "address",
          "name": "owner",
          "type": "address"
        },
        {
          "indexed": true,
          "internalType": "address",
          "name": "spender",
          "type": "address"
        },
        {
          "indexed": false,
          "internalType": "uint256",
          "name": "value",
          "type": "uint256"
        }
      ],
      "name": "Approval",
      "type": "event"
    },
    {
      "anonymous": false,
      "inputs": [
        {
          "indexed": true,
          "internalType": "address",
          "name": "owner",
          "type": "address"
        },
        {
          "indexed": true,
          "internalType": "address",
          "name": "spender",
          "type": "address"
        }
      ],
      "name": "ApprovalEncrypted",
      "type": "event"
    },
    {
      "anonymous": false,
      "inputs": [],
      "name": "EIP712DomainChanged",
      "type": "event"
    },
    {
      "anonymous": false,
      "inputs": [
        {
          "indexed": true,
          "internalType": "address",
          "name": "from",
          "type": "address"
        },
        {
          "indexed": true,
          "internalType": "address",
          "name": "to",
          "type": "address"
        },
        {
          "indexed": false,
          "internalType": "uint256",
          "name": "value",
          "type": "uint256"
        }
      ],
      "name": "Transfer",
      "type": "event"
    },
    {
      "anonymous": false,
      "inputs": [
        {
          "indexed": true,
          "internalType": "address",
          "name": "from",
          "type": "address"
        },
        {
          "indexed": true,
          "internalType": "address",
          "name": "to",
          "type": "address"
        }
      ],
      "name": "TransferEncrypted",
      "type": "event"
    },
    {
      "inputs": [
        {
          "internalType": "address",
          "name": "owner",
          "type": "address"
        },
        {
          "internalType": "address",
          "name": "spender",
          "type": "address"
        }
      ],
      "name": "_allowanceEncrypted",
      "outputs": [
        {
          "internalType": "euint128",
          "name": "",
          "type": "uint256"
        }
      ],
      "stateMutability": "view",
      "type": "function"
    },
    {
      "inputs": [
        {
          "internalType": "address",
          "name": "owner",
          "type": "address"
        },
        {
          "internalType": "address",
          "name": "spender",
          "type": "address"
        }
      ],
      "name": "allowance",
      "outputs": [
        {
          "internalType": "uint256",
          "name": "",
          "type": "uint256"
        }
      ],
      "stateMutability": "view",
      "type": "function"
    },
    {
      "inputs": [
        {
          "internalType": "address",
          "name": "spender",
          "type": "address"
        },
        {
          "components": [
            {
              "internalType": "bytes32",
              "name": "publicKey",
              "type": "bytes32"
            },
            {
              "internalType": "bytes",
              "name": "signature",
              "type": "bytes"
            }
          ],
          "internalType": "struct Permission",
          "name": "permission",
          "type": "tuple"
        }
      ],
      "name": "allowanceEncrypted",
      "outputs": [
        {
          "internalType": "string",
          "name": "",
          "type": "string"
        }
      ],
      "stateMutability": "view",
      "type": "function"
    },
    {
      "inputs": [
        {
          "internalType": "address",
          "name": "spender",
          "type": "address"
        },
        {
          "internalType": "uint256",
          "name": "amount",
          "type": "uint256"
        }
      ],
      "name": "approve",
      "outputs": [
        {
          "internalType": "bool",
          "name": "",
          "type": "bool"
        }
      ],
      "stateMutability": "nonpayable",
      "type": "function"
    },
    {
      "inputs": [
        {
          "internalType": "address",
          "name": "spender",
          "type": "address"
        },
        {
          "components": [
            {
              "internalType": "bytes",
              "name": "data",
              "type": "bytes"
            }
          ],
          "internalType": "struct inEuint128",
          "name": "value",
          "type": "tuple"
        }
      ],
      "name": "approveEncrypted",
      "outputs": [
        {
          "internalType": "bool",
          "name": "",
          "type": "bool"
        }
      ],
      "stateMutability": "nonpayable",
      "type": "function"
    },
    {
      "inputs": [
        {
          "internalType": "address",
          "name": "account",
          "type": "address"
        }
      ],
      "name": "balanceOf",
      "outputs": [
        {
          "internalType": "uint256",
          "name": "",
          "type": "uint256"
        }
      ],
      "stateMutability": "view",
      "type": "function"
    },
    {
      "inputs": [
        {
          "internalType": "eaddress",
          "name": "account",
          "type": "uint256"
        }
      ],
      "name": "balanceOf",
      "outputs": [
        {
          "internalType": "euint128",
          "name": "",
          "type": "uint256"
        }
      ],
      "stateMutability": "view",
      "type": "function"
    },
    {
      "inputs": [
        {
          "internalType": "address",
          "name": "account",
          "type": "address"
        },
        {
          "components": [
            {
              "internalType": "bytes32",
              "name": "publicKey",
              "type": "bytes32"
            },
            {
              "internalType": "bytes",
              "name": "signature",
              "type": "bytes"
            }
          ],
          "internalType": "struct Permission",
          "name": "auth",
          "type": "tuple"
        }
      ],
      "name": "balanceOfEncrypted",
      "outputs": [
        {
          "internalType": "string",
          "name": "",
          "type": "string"
        }
      ],
      "stateMutability": "view",
      "type": "function"
    },
    {
      "inputs": [],
      "name": "decimals",
      "outputs": [
        {
          "internalType": "uint8",
          "name": "",
          "type": "uint8"
        }
      ],
      "stateMutability": "view",
      "type": "function"
    },
    {
      "inputs": [
        {
          "internalType": "address",
          "name": "spender",
          "type": "address"
        },
        {
          "internalType": "uint256",
          "name": "subtractedValue",
          "type": "uint256"
        }
      ],
      "name": "decreaseAllowance",
      "outputs": [
        {
          "internalType": "bool",
          "name": "",
          "type": "bool"
        }
      ],
      "stateMutability": "nonpayable",
      "type": "function"
    },
    {
      "inputs": [],
      "name": "eip712Domain",
      "outputs": [
        {
          "internalType": "bytes1",
          "name": "fields",
          "type": "bytes1"
        },
        {
          "internalType": "string",
          "name": "name",
          "type": "string"
        },
        {
          "internalType": "string",
          "name": "version",
          "type": "string"
        },
        {
          "internalType": "uint256",
          "name": "chainId",
          "type": "uint256"
        },
        {
          "internalType": "address",
          "name": "verifyingContract",
          "type": "address"
        },
        {
          "internalType": "bytes32",
          "name": "salt",
          "type": "bytes32"
        },
        {
          "internalType": "uint256[]",
          "name": "extensions",
          "type": "uint256[]"
        }
      ],
      "stateMutability": "view",
      "type": "function"
    },
    {
      "inputs": [
        {
          "internalType": "address",
          "name": "spender",
          "type": "address"
        },
        {
          "internalType": "uint256",
          "name": "addedValue",
          "type": "uint256"
        }
      ],
      "name": "increaseAllowance",
      "outputs": [
        {
          "internalType": "bool",
          "name": "",
          "type": "bool"
        }
      ],
      "stateMutability": "nonpayable",
      "type": "function"
    },
    {
      "inputs": [
        {
          "internalType": "euint128",
          "name": "encryptedAmount",
          "type": "uint256"
        }
      ],
      "name": "mintEncrypted",
      "outputs": [],
      "stateMutability": "nonpayable",
      "type": "function"
    },
    {
      "inputs": [],
      "name": "name",
      "outputs": [
        {
          "internalType": "string",
          "name": "",
          "type": "string"
        }
      ],
      "stateMutability": "view",
      "type": "function"
    },
    {
      "inputs": [],
      "name": "symbol",
      "outputs": [
        {
          "internalType": "string",
          "name": "",
          "type": "string"
        }
      ],
      "stateMutability": "view",
      "type": "function"
    },
    {
      "inputs": [],
      "name": "totalSupply",
      "outputs": [
        {
          "internalType": "uint256",
          "name": "",
          "type": "uint256"
        }
      ],
      "stateMutability": "view",
      "type": "function"
    },
    {
      "inputs": [
        {
          "internalType": "eaddress",
          "name": "receiver",
          "type": "uint256"
        },
        {
          "internalType": "euint128",
          "name": "amount",
          "type": "uint256"
        }
      ],
      "name": "transfer",
      "outputs": [],
      "stateMutability": "nonpayable",
      "type": "function"
    },
    {
      "inputs": [
        {
          "internalType": "address",
          "name": "to",
          "type": "address"
        },
        {
          "internalType": "uint256",
          "name": "amount",
          "type": "uint256"
        }
      ],
      "name": "transfer",
      "outputs": [
        {
          "internalType": "bool",
          "name": "",
          "type": "bool"
        }
      ],
      "stateMutability": "nonpayable",
      "type": "function"
    },
    {
      "inputs": [
        {
          "internalType": "address",
          "name": "to",
          "type": "address"
        },
        {
          "components": [
            {
              "internalType": "bytes",
              "name": "data",
              "type": "bytes"
            }
          ],
          "internalType": "struct inEuint128",
          "name": "encryptedAmount",
          "type": "tuple"
        }
      ],
      "name": "transferEncrypted",
      "outputs": [
        {
          "internalType": "euint128",
          "name": "",
          "type": "uint256"
        }
      ],
      "stateMutability": "nonpayable",
      "type": "function"
    },
    {
      "inputs": [
        {
          "internalType": "address",
          "name": "to",
          "type": "address"
        },
        {
          "internalType": "euint128",
          "name": "amount",
          "type": "uint256"
        }
      ],
      "name": "transferEncrypted",
      "outputs": [
        {
          "internalType": "euint128",
          "name": "",
          "type": "uint256"
        }
      ],
      "stateMutability": "nonpayable",
      "type": "function"
    },
    {
      "inputs": [
        {
          "internalType": "address",
          "name": "from",
          "type": "address"
        },
        {
          "internalType": "address",
          "name": "to",
          "type": "address"
        },
        {
          "internalType": "uint256",
          "name": "amount",
          "type": "uint256"
        }
      ],
      "name": "transferFrom",
      "outputs": [
        {
          "internalType": "bool",
          "name": "",
          "type": "bool"
        }
      ],
      "stateMutability": "nonpayable",
      "type": "function"
    },
    {
      "inputs": [
        {
          "internalType": "eaddress",
          "name": "sender",
          "type": "uint256"
        },
        {
          "internalType": "eaddress",
          "name": "receiver",
          "type": "uint256"
        },
        {
          "internalType": "euint128",
          "name": "amount",
          "type": "uint256"
        }
      ],
      "name": "transferFrom",
      "outputs": [],
      "stateMutability": "nonpayable",
      "type": "function"
    },
    {
      "inputs": [
        {
          "internalType": "address",
          "name": "from",
          "type": "address"
        },
        {
          "internalType": "address",
          "name": "to",
          "type": "address"
        },
        {
          "components": [
            {
              "internalType": "bytes",
              "name": "data",
              "type": "bytes"
            }
          ],
          "internalType": "struct inEuint128",
          "name": "value",
          "type": "tuple"
        }
      ],
      "name": "transferFromEncrypted",
      "outputs": [
        {
          "internalType": "euint128",
          "name": "",
          "type": "uint256"
        }
      ],
      "stateMutability": "nonpayable",
      "type": "function"
    },
    {
      "inputs": [
        {
          "internalType": "address",
          "name": "from",
          "type": "address"
        },
        {
          "internalType": "address",
          "name": "to",
          "type": "address"
        },
        {
          "internalType": "euint128",
          "name": "value",
          "type": "uint256"
        }
      ],
      "name": "transferFromEncrypted",
      "outputs": [
        {
          "internalType": "euint128",
          "name": "",
          "type": "uint256"
        }
      ],
      "stateMutability": "nonpayable",
      "type": "function"
    },
    {
      "inputs": [
        {
          "internalType": "uint32",
          "name": "amount",
          "type": "uint32"
        }
      ],
      "name": "unwrap",
      "outputs": [],
      "stateMutability": "nonpayable",
      "type": "function"
    },
    {
      "inputs": [
        {
          "internalType": "uint32",
          "name": "amount",
          "type": "uint32"
        }
      ],
      "name": "wrap",
      "outputs": [],
      "stateMutability": "nonpayable",
      "type": "function"
    }
  ],
  "bytecode": "0x6101606040526200001760006200022b60201b60201c565b6009553480156200002757600080fd5b50604051620052dc380380620052dc83398181016040528101906200004d91906200062c565b60008251146200005e578162000095565b6040518060400160405280600981526020017f46484520546f6b656e00000000000000000000000000000000000000000000008152505b6000825114620000a65781620000dd565b6040518060400160405280600381526020017f46484500000000000000000000000000000000000000000000000000000000008152505b6040518060400160405280601181526020017f4668656e6978205065726d697373696f6e0000000000000000000000000000008152506040518060400160405280600381526020017f312e300000000000000000000000000000000000000000000000000000000000815250838381600390816200015c9190620008fc565b5080600490816200016e9190620008fc565b505050620001876005836200024760201b90919060201c565b6101208181525050620001a56006826200024760201b90919060201c565b6101408181525050818051906020012060e08181525050808051906020012061010081815250504660a08181525050620001e46200029f60201b60201c565b608081815250503073ffffffffffffffffffffffffffffffffffffffff1660c08173ffffffffffffffffffffffffffffffffffffffff168152505050505050505062000d72565b600062000240826004620002fc60201b60201c565b9050919050565b60006020835110156200026d576200026583620003b360201b60201c565b905062000299565b826200027f836200042060201b60201c565b6000019081620002909190620008fc565b5060ff60001b90505b92915050565b60007f8b73c3c69bb8fe3d512ecc4cf759cc79239f7b179b0ffacaa9a75d522b39400f60e051610100514630604051602001620002e195949392919062000a54565b60405160208183030381529060405280519060200120905090565b60006060608073ffffffffffffffffffffffffffffffffffffffff166319e1c5c46200032e866200042a60201b60201c565b856040518363ffffffff1660e01b81526004016200034e92919062000b2c565b600060405180830381865afa1580156200036c573d6000803e3d6000fd5b505050506040513d6000823e3d601f19601f8201168201806040525081019062000397919062000c14565b9050620003aa816200048b60201b60201c565b91505092915050565b600080829050601f815111156200040357826040517f305a27a9000000000000000000000000000000000000000000000000000000008152600401620003fa919062000cb7565b60405180910390fd5b805181620004119062000d02565b60001c1760001b915050919050565b6000819050919050565b6060602067ffffffffffffffff8111156200044a5762000449620004c8565b5b6040519080825280601f01601f1916602001820160405280156200047d5781602001600182028036833780820191505090505b509050816020820152919050565b600060208201519050919050565b6000604051905090565b600080fd5b600080fd5b600080fd5b600080fd5b6000601f19601f8301169050919050565b7f4e487b7100000000000000000000000000000000000000000000000000000000600052604160045260246000fd5b6200050282620004b7565b810181811067ffffffffffffffff82111715620005245762000523620004c8565b5b80604052505050565b60006200053962000499565b9050620005478282620004f7565b919050565b600067ffffffffffffffff8211156200056a5762000569620004c8565b5b6200057582620004b7565b9050602081019050919050565b60005b83811015620005a257808201518184015260208101905062000585565b60008484015250505050565b6000620005c5620005bf846200054c565b6200052d565b905082815260208101848484011115620005e457620005e3620004b2565b5b620005f184828562000582565b509392505050565b600082601f830112620006115762000610620004ad565b5b815162000623848260208601620005ae565b91505092915050565b60008060408385031215620006465762000645620004a3565b5b600083015167ffffffffffffffff811115620006675762000666620004a8565b5b6200067585828601620005f9565b925050602083015167ffffffffffffffff811115620006995762000698620004a8565b5b620006a785828601620005f9565b9150509250929050565b600081519050919050565b7f4e487b7100000000000000000000000000000000000000000000000000000000600052602260045260246000fd5b600060028204905060018216806200070457607f821691505b6020821081036200071a5762000719620006bc565b5b50919050565b60008190508160005260206000209050919050565b60006020601f8301049050919050565b600082821b905092915050565b600060088302620007847fffffffffffffffffffffffffffffffffffffffffffffffffffffffffffffffff8262000745565b62000790868362000745565b95508019841693508086168417925050509392505050565b6000819050919050565b6000819050919050565b6000620007dd620007d7620007d184620007a8565b620007b2565b620007a8565b9050919050565b6000819050919050565b620007f983620007bc565b620008116200080882620007e4565b84845462000752565b825550505050565b600090565b6200082862000819565b62000835818484620007ee565b505050565b5b818110156200085d57620008516000826200081e565b6001810190506200083b565b5050565b601f821115620008ac57620008768162000720565b620008818462000735565b8101602085101562000891578190505b620008a9620008a08562000735565b8301826200083a565b50505b505050565b600082821c905092915050565b6000620008d160001984600802620008b1565b1980831691505092915050565b6000620008ec8383620008be565b9150826002028217905092915050565b6200090782620006b1565b67ffffffffffffffff811115620009235762000922620004c8565b5b6200092f8254620006eb565b6200093c82828562000861565b600060209050601f8311600181146200097457600084156200095f578287015190505b6200096b8582620008de565b865550620009db565b601f198416620009848662000720565b60005b82811015620009ae5784890151825560018201915060208501945060208101905062000987565b86831015620009ce5784890151620009ca601f891682620008be565b8355505b6001600288020188555050505b505050505050565b6000819050919050565b620009f881620009e3565b82525050565b62000a0981620007a8565b82525050565b600073ffffffffffffffffffffffffffffffffffffffff82169050919050565b600062000a3c8262000a0f565b9050919050565b62000a4e8162000a2f565b82525050565b600060a08201905062000a6b6000830188620009ed565b62000a7a6020830187620009ed565b62000a896040830186620009ed565b62000a986060830185620009fe565b62000aa7608083018462000a43565b9695505050505050565b600081519050919050565b600082825260208201905092915050565b600062000ada8262000ab1565b62000ae6818562000abc565b935062000af881856020860162000582565b62000b0381620004b7565b840191505092915050565b600060ff82169050919050565b62000b268162000b0e565b82525050565b6000604082019050818103600083015262000b48818562000acd565b905062000b59602083018462000b1b565b9392505050565b600067ffffffffffffffff82111562000b7e5762000b7d620004c8565b5b62000b8982620004b7565b9050602081019050919050565b600062000bad62000ba78462000b60565b6200052d565b90508281526020810184848401111562000bcc5762000bcb620004b2565b5b62000bd984828562000582565b509392505050565b600082601f83011262000bf95762000bf8620004ad565b5b815162000c0b84826020860162000b96565b91505092915050565b60006020828403121562000c2d5762000c2c620004a3565b5b600082015167ffffffffffffffff81111562000c4e5762000c4d620004a8565b5b62000c5c8482850162000be1565b91505092915050565b600082825260208201905092915050565b600062000c8382620006b1565b62000c8f818562000c65565b935062000ca181856020860162000582565b62000cac81620004b7565b840191505092915050565b6000602082019050818103600083015262000cd3818462000c76565b905092915050565b6000819050602082019050919050565b600062000cf98251620009e3565b80915050919050565b600062000d0f8262000ab1565b8262000d1b8462000cdb565b905062000d288162000ceb565b9250602082101562000d6b5762000d667fffffffffffffffffffffffffffffffffffffffffffffffffffffffffffffffff8360200360080262000745565b831692505b5050919050565b60805160a05160c05160e05161010051610120516101405161450f62000dcd6000396000610ddc01526000610da801526000612b6501526000612b440152600061242b01526000612481015260006124aa015261450f6000f3fe608060405234801561001057600080fd5b506004361061018e5760003560e01c806370a08231116100de578063a457c2d711610097578063c0429d6811610071578063c0429d681461050f578063c4224c191461052b578063d918156e1461055b578063dd62ed3e1461058b5761018e565b8063a457c2d71461047f578063a9059cbb146104af578063af575a00146104df5761018e565b806370a082311461039157806384b0196e146103c15780638624a349146103e557806395d89b41146104155780639cc7f708146104335780639f284be7146104635761018e565b8063310ed7f01161014b57806339c217f71161012557806339c217f7146102e55780635356c4291461031557806360277204146103455780636e0505e1146103755761018e565b8063310ed7f01461027b578063313ce5671461029757806339509351146102b55761018e565b806306fdde0314610193578063095ea7b3146101b15780630cf79e0a146101e157806318160ddd146101fd57806323b872dd1461021b57806323db93541461024b575b600080fd5b61019b6105bb565b6040516101a89190612e0c565b60405180910390f35b6101cb60048036038101906101c69190612ed6565b61064d565b6040516101d89190612f31565b60405180910390f35b6101fb60048036038101906101f69190612fa4565b610670565b005b6102056107d2565b6040516102129190612ff3565b60405180910390f35b6102356004803603810190610230919061300e565b6107dc565b6040516102429190612f31565b60405180910390f35b61026560048036038101906102609190613061565b61080b565b60405161027291906130dc565b60405180910390f35b610295600480360381019061029091906130f7565b610892565b005b61029f610971565b6040516102ac9190613166565b60405180910390f35b6102cf60048036038101906102ca9190612ed6565b61097a565b6040516102dc9190612f31565b60405180910390f35b6102ff60048036038101906102fa91906131a5565b6109b1565b60405161030c91906130dc565b60405180910390f35b61032f600480360381019061032a9190613220565b6109d6565b60405161033c9190612e0c565b60405180910390f35b61035f600480360381019061035a919061345d565b610ad4565b60405161036c9190612e0c565b60405180910390f35b61038f600480360381019061038a91906134f5565b610c0a565b005b6103ab60048036038101906103a69190613522565b610d4d565b6040516103b89190612ff3565b60405180910390f35b6103c9610d95565b6040516103dc9796959493929190613666565b60405180910390f35b6103ff60048036038101906103fa91906136ea565b610e97565b60405161040c91906130dc565b60405180910390f35b61041d610ed5565b60405161042a9190612e0c565b60405180910390f35b61044d60048036038101906104489190613759565b610f67565b60405161045a91906130dc565b60405180910390f35b61047d600480360381019061047891906134f5565b610f84565b005b61049960048036038101906104949190612ed6565b611091565b6040516104a69190612f31565b60405180910390f35b6104c960048036038101906104c49190612ed6565b611108565b6040516104d69190612f31565b60405180910390f35b6104f960048036038101906104f49190613786565b61112b565b60405161050691906130dc565b60405180910390f35b610529600480360381019061052491906137d9565b611158565b005b61054560048036038101906105409190613806565b61128f565b60405161055291906130dc565b60405180910390f35b610575600480360381019061057091906131a5565b6112a4565b6040516105829190612f31565b60405180910390f35b6105a560048036038101906105a09190613061565b6112cc565b6040516105b29190612ff3565b60405180910390f35b6060600380546105ca90613875565b80601f01602080910402602001604051908101604052809291908181526020018280546105f690613875565b80156106435780601f1061061857610100808354040283529160200191610643565b820191906000526020600020905b81548152906001019060200180831161062657829003601f168201915b5050505050905090565b600080610658611353565b905061066581858561135b565b600191505092915050565b6000600760003373ffffffffffffffffffffffffffffffffffffffff1673ffffffffffffffffffffffffffffffffffffffff1681526020019081526020016000205490506106cf6106ca838361152490919063ffffffff16565b611538565b6106eb600a6000858152602001908152602001600020546115ed565b61070c5781600a600085815260200190815260200160002081905550610741565b610729600a600085815260200190815260200160002054836115fa565b600a6000858152602001908152602001600020819055505b61078a600760003373ffffffffffffffffffffffffffffffffffffffff1673ffffffffffffffffffffffffffffffffffffffff168152602001908152602001600020548361160e565b600760003373ffffffffffffffffffffffffffffffffffffffff1673ffffffffffffffffffffffffffffffffffffffff16815260200190815260200160002081905550505050565b6000600254905090565b6000806107e7611353565b90506107f4858285611622565b6107ff8585856116ae565b60019150509392505050565b6000600860008473ffffffffffffffffffffffffffffffffffffffff1673ffffffffffffffffffffffffffffffffffffffff16815260200190815260200160002060008373ffffffffffffffffffffffffffffffffffffffff1673ffffffffffffffffffffffffffffffffffffffff16815260200190815260200160002054905092915050565b6000600a60008581526020019081526020016000205490506108c56108c0838361152490919063ffffffff16565b611538565b6108e1600a6000858152602001908152602001600020546115ed565b6109025781600a600085815260200190815260200160002081905550610937565b61091f600a600085815260200190815260200160002054836115fa565b600a6000858152602001908152602001600020819055505b610954600a6000868152602001908152602001600020548361160e565b600a60008681526020019081526020016000208190555050505050565b60006012905090565b600080610985611353565b90506109a681858561099785896112cc565b6109a191906138d5565b61135b565b600191505092915050565b60006109ce836109c9846109c490613961565b611924565b61128f565b905092915050565b6060816109e290613974565b6000610a397f6bdaeb2d29561f159c7ef98b16b27015fb2aeb87209c7ee656226d912f59927d8360000151604051602001610a1e929190613987565b6040516020818303038152906040528051906020012061193a565b90506000610a4b828460200151611954565b90503373ffffffffffffffffffffffffffffffffffffffff168173ffffffffffffffffffffffffffffffffffffffff1614610ab2576040517f3093a27700000000000000000000000000000000000000000000000000000000815260040160405180910390fd5b610ac9610abf338861080b565b866000013561197b565b935050505092915050565b606081836000610b2f7f6bdaeb2d29561f159c7ef98b16b27015fb2aeb87209c7ee656226d912f59927d8460000151604051602001610b14929190613987565b6040516020818303038152906040528051906020012061193a565b90506000610b41828560200151611954565b90508273ffffffffffffffffffffffffffffffffffffffff168173ffffffffffffffffffffffffffffffffffffffff1614610ba8576040517f51c65eae00000000000000000000000000000000000000000000000000000000815260040160405180910390fd5b610bfe8660000151600760008a73ffffffffffffffffffffffffffffffffffffffff1673ffffffffffffffffffffffffffffffffffffffff168152602001908152602001600020546119b190919063ffffffff16565b94505050505092915050565b6000610c1b8263ffffffff166119c5565b90506000610c84610c7483600760003373ffffffffffffffffffffffffffffffffffffffff1673ffffffffffffffffffffffffffffffffffffffff1681526020019081526020016000205461152490919063ffffffff16565b83610c7f60006119c5565b6119d9565b9050610ccf600760003373ffffffffffffffffffffffffffffffffffffffff1673ffffffffffffffffffffffffffffffffffffffff168152602001908152602001600020548261160e565b600760003373ffffffffffffffffffffffffffffffffffffffff1673ffffffffffffffffffffffffffffffffffffffff16815260200190815260200160002081905550610d1e6009548261160e565b600981905550610d4833610d3183611a57565b6fffffffffffffffffffffffffffffffff16611b1a565b505050565b60008060008373ffffffffffffffffffffffffffffffffffffffff1673ffffffffffffffffffffffffffffffffffffffff168152602001908152602001600020549050919050565b600060608060008060006060610dd560057f0000000000000000000000000000000000000000000000000000000000000000611c7090919063ffffffff16565b610e0960067f0000000000000000000000000000000000000000000000000000000000000000611c7090919063ffffffff16565b46306000801b600067ffffffffffffffff811115610e2a57610e29613281565b5b604051908082528060200260200182016040528015610e585781602001602082028036833780820191505090505b507f0f00000000000000000000000000000000000000000000000000000000000000959493929190965096509650965096509650965090919293949596565b600080610eac83610ea790613961565b611924565b90506000610ebb863384611d20565b9050610ec8868683611d5d565b5080925050509392505050565b606060048054610ee490613875565b80601f0160208091040260200160405190810160405280929190818152602001828054610f1090613875565b8015610f5d5780601f10610f3257610100808354040283529160200191610f5d565b820191906000526020600020905b815481529060010190602001808311610f4057829003601f168201915b5050505050905090565b6000600a6000838152602001908152602001600020549050919050565b8063ffffffff16610f9433610d4d565b1015610fcc576040517ffda7bbda00000000000000000000000000000000000000000000000000000000815260040160405180910390fd5b610fdc338263ffffffff16611eea565b6000610fed8263ffffffff166119c5565b9050611038600760003373ffffffffffffffffffffffffffffffffffffffff1673ffffffffffffffffffffffffffffffffffffffff16815260200190815260200160002054826115fa565b600760003373ffffffffffffffffffffffffffffffffffffffff1673ffffffffffffffffffffffffffffffffffffffff16815260200190815260200160002081905550611087600954826115fa565b6009819055505050565b60008061109c611353565b905060006110aa82866112cc565b9050838110156110ef576040517f08c379a00000000000000000000000000000000000000000000000000000000081526004016110e690613a22565b60405180910390fd5b6110fc828686840361135b565b60019250505092915050565b600080611113611353565b90506111208185856116ae565b600191505092915050565b600080829050600061113e863384611d20565b905061114b868683611d5d565b5080925050509392505050565b6111a0600760003373ffffffffffffffffffffffffffffffffffffffff1673ffffffffffffffffffffffffffffffffffffffff168152602001908152602001600020546115ed565b6111ed5780600760003373ffffffffffffffffffffffffffffffffffffffff1673ffffffffffffffffffffffffffffffffffffffff1681526020019081526020016000208190555061127a565b611236600760003373ffffffffffffffffffffffffffffffffffffffff1673ffffffffffffffffffffffffffffffffffffffff16815260200190815260200160002054826115fa565b600760003373ffffffffffffffffffffffffffffffffffffffff1673ffffffffffffffffffffffffffffffffffffffff168152602001908152602001600020819055505b611286600954826115fa565b60098190555050565b600061129c338484611d5d565b905092915050565b60006112c233846112bd856112b890613961565b611924565b6120b7565b6001905092915050565b6000600160008473ffffffffffffffffffffffffffffffffffffffff1673ffffffffffffffffffffffffffffffffffffffff16815260200190815260200160002060008373ffffffffffffffffffffffffffffffffffffffff1673ffffffffffffffffffffffffffffffffffffffff16815260200190815260200160002054905092915050565b600033905090565b600073ffffffffffffffffffffffffffffffffffffffff168373ffffffffffffffffffffffffffffffffffffffff16036113ca576040517f08c379a00000000000000000000000000000000000000000000000000000000081526004016113c190613ab4565b60405180910390fd5b600073ffffffffffffffffffffffffffffffffffffffff168273ffffffffffffffffffffffffffffffffffffffff1603611439576040517f08c379a000000000000000000000000000000000000000000000000000000000815260040161143090613b46565b60405180910390fd5b80600160008573ffffffffffffffffffffffffffffffffffffffff1673ffffffffffffffffffffffffffffffffffffffff16815260200190815260200160002060008473ffffffffffffffffffffffffffffffffffffffff1673ffffffffffffffffffffffffffffffffffffffff168152602001908152602001600020819055508173ffffffffffffffffffffffffffffffffffffffff168373ffffffffffffffffffffffffffffffffffffffff167f8c5be1e5ebec7d5bd14f71427d1e84f3dd0314c0f7b2291e5b200ac8c7c3b925836040516115179190612ff3565b60405180910390a3505050565b60006115308383612221565b905092915050565b6115418161229a565b6115525761154f60006122a7565b90505b60008190506000611562826122bb565b9050608073ffffffffffffffffffffffffffffffffffffffff16637d23f1db600d836040518363ffffffff1660e01b81526004016115a1929190613bbb565b600060405180830381865afa1580156115be573d6000803e3d6000fd5b505050506040513d6000823e3d601f19601f820116820180604052508101906115e79190613c5b565b50505050565b6000808214159050919050565b60006116068383612318565b905092915050565b600061161a8383612390565b905092915050565b600061162e84846112cc565b90507fffffffffffffffffffffffffffffffffffffffffffffffffffffffffffffffff81146116a8578181101561169a576040517f08c379a000000000000000000000000000000000000000000000000000000000815260040161169190613cf0565b60405180910390fd5b6116a7848484840361135b565b5b50505050565b600073ffffffffffffffffffffffffffffffffffffffff168373ffffffffffffffffffffffffffffffffffffffff160361171d576040517f08c379a000000000000000000000000000000000000000000000000000000000815260040161171490613d82565b60405180910390fd5b600073ffffffffffffffffffffffffffffffffffffffff168273ffffffffffffffffffffffffffffffffffffffff160361178c576040517f08c379a000000000000000000000000000000000000000000000000000000000815260040161178390613e14565b60405180910390fd5b611797838383612409565b60008060008573ffffffffffffffffffffffffffffffffffffffff1673ffffffffffffffffffffffffffffffffffffffff1681526020019081526020016000205490508181101561181d576040517f08c379a000000000000000000000000000000000000000000000000000000000815260040161181490613ea6565b60405180910390fd5b8181036000808673ffffffffffffffffffffffffffffffffffffffff1673ffffffffffffffffffffffffffffffffffffffff16815260200190815260200160002081905550816000808573ffffffffffffffffffffffffffffffffffffffff1673ffffffffffffffffffffffffffffffffffffffff168152602001908152602001600020600082825401925050819055508273ffffffffffffffffffffffffffffffffffffffff168473ffffffffffffffffffffffffffffffffffffffff167fddf252ad1be2c89b69c2b068fc378daa952ba7f163c4a11628f55a4df523b3ef8460405161190b9190612ff3565b60405180910390a361191e84848461240e565b50505050565b60006119338260000151612413565b9050919050565b600061194d611947612427565b836124de565b9050919050565b6000806000611963858561251f565b9150915061197081612570565b819250505092915050565b6060611986836115ed565b6119975761199460006119c5565b92505b60008390506119a8600482856126d6565b91505092915050565b60606119bd838361197b565b905092915050565b60006119d282600461278c565b9050919050565b60006119e48461229a565b6119f5576119f260006122a7565b93505b6119fe836115ed565b611a0f57611a0c60006119c5565b92505b611a18826115ed565b611a2957611a2660006119c5565b91505b6000849050600084905060008490506000611a47600485858561282e565b9050809450505050509392505050565b6000611a62826115ed565b611a7357611a7060006119c5565b91505b60008290506000611a83826122bb565b90506000608073ffffffffffffffffffffffffffffffffffffffff166373cc01546004846040518363ffffffff1660e01b8152600401611ac4929190613bbb565b602060405180830381865afa158015611ae1573d6000803e3d6000fd5b505050506040513d601f19601f82011682018060405250810190611b059190613edb565b9050611b10816128e6565b9350505050919050565b600073ffffffffffffffffffffffffffffffffffffffff168273ffffffffffffffffffffffffffffffffffffffff1603611b89576040517f08c379a0000000000000000000000000000000000000000000000000000000008152600401611b8090613f54565b60405180910390fd5b611b9560008383612409565b8060026000828254611ba791906138d5565b92505081905550806000808473ffffffffffffffffffffffffffffffffffffffff1673ffffffffffffffffffffffffffffffffffffffff168152602001908152602001600020600082825401925050819055508173ffffffffffffffffffffffffffffffffffffffff16600073ffffffffffffffffffffffffffffffffffffffff167fddf252ad1be2c89b69c2b068fc378daa952ba7f163c4a11628f55a4df523b3ef83604051611c589190612ff3565b60405180910390a3611c6c6000838361240e565b5050565b606060ff60001b8314611c8d57611c86836128f0565b9050611d1a565b818054611c9990613875565b80601f0160208091040260200160405190810160405280929190818152602001828054611cc590613875565b8015611d125780601f10611ce757610100808354040283529160200191611d12565b820191906000526020600020905b815481529060010190602001808311611cf557829003601f168201915b505050505090505b92915050565b600080611d2d858561080b565b90506000611d3b8285612964565b9050611d518686611d4c858561160e565b6120b7565b80925050509392505050565b600080611dc5611db5600760008873ffffffffffffffffffffffffffffffffffffffff1673ffffffffffffffffffffffffffffffffffffffff16815260200190815260200160002054856129dd90919063ffffffff16565b84611dc060006119c5565b6119d9565b9050611e10600760008673ffffffffffffffffffffffffffffffffffffffff1673ffffffffffffffffffffffffffffffffffffffff16815260200190815260200160002054826115fa565b600760008673ffffffffffffffffffffffffffffffffffffffff1673ffffffffffffffffffffffffffffffffffffffff16815260200190815260200160002081905550611e9c600760008773ffffffffffffffffffffffffffffffffffffffff1673ffffffffffffffffffffffffffffffffffffffff168152602001908152602001600020548261160e565b600760008773ffffffffffffffffffffffffffffffffffffffff1673ffffffffffffffffffffffffffffffffffffffff16815260200190815260200160002081905550809150509392505050565b600073ffffffffffffffffffffffffffffffffffffffff168273ffffffffffffffffffffffffffffffffffffffff1603611f59576040517f08c379a0000000000000000000000000000000000000000000000000000000008152600401611f5090613fe6565b60405180910390fd5b611f6582600083612409565b60008060008473ffffffffffffffffffffffffffffffffffffffff1673ffffffffffffffffffffffffffffffffffffffff16815260200190815260200160002054905081811015611feb576040517f08c379a0000000000000000000000000000000000000000000000000000000008152600401611fe290614078565b60405180910390fd5b8181036000808573ffffffffffffffffffffffffffffffffffffffff1673ffffffffffffffffffffffffffffffffffffffff1681526020019081526020016000208190555081600260008282540392505081905550600073ffffffffffffffffffffffffffffffffffffffff168373ffffffffffffffffffffffffffffffffffffffff167fddf252ad1be2c89b69c2b068fc378daa952ba7f163c4a11628f55a4df523b3ef8460405161209e9190612ff3565b60405180910390a36120b28360008461240e565b505050565b600073ffffffffffffffffffffffffffffffffffffffff168373ffffffffffffffffffffffffffffffffffffffff16036121295760006040517fe602df050000000000000000000000000000000000000000000000000000000081526004016121209190614098565b60405180910390fd5b600073ffffffffffffffffffffffffffffffffffffffff168273ffffffffffffffffffffffffffffffffffffffff160361219b5760006040517f94280d620000000000000000000000000000000000000000000000000000000081526004016121929190614098565b60405180910390fd5b80600860008573ffffffffffffffffffffffffffffffffffffffff1673ffffffffffffffffffffffffffffffffffffffff16815260200190815260200160002060008473ffffffffffffffffffffffffffffffffffffffff1673ffffffffffffffffffffffffffffffffffffffff16815260200190815260200160002081905550505050565b600061222c836115ed565b61223d5761223a60006119c5565b92505b612246826115ed565b6122575761225460006119c5565b91505b60008390506000839050600061228c60048484608073ffffffffffffffffffffffffffffffffffffffff1663650de1cf6129f1565b905080935050505092915050565b6000808214159050919050565b60006122b482600d61278c565b9050919050565b6060602067ffffffffffffffff8111156122d8576122d7613281565b5b6040519080825280601f01601f19166020018201604052801561230a5781602001600182028036833780820191505090505b509050816020820152919050565b6000612323836115ed565b6123345761233160006119c5565b92505b61233d826115ed565b61234e5761234b60006119c5565b91505b60008390506000839050600061238260048484608073ffffffffffffffffffffffffffffffffffffffff16622df6196129f1565b905080935050505092915050565b600061239b836115ed565b6123ac576123a960006119c5565b92505b6123b5826115ed565b6123c6576123c360006119c5565b91505b6000839050600083905060006123fb60048484608073ffffffffffffffffffffffffffffffffffffffff1663cc2cbeff6129f1565b905080935050505092915050565b505050565b505050565b6000612420826004612a85565b9050919050565b60007f000000000000000000000000000000000000000000000000000000000000000073ffffffffffffffffffffffffffffffffffffffff163073ffffffffffffffffffffffffffffffffffffffff161480156124a357507f000000000000000000000000000000000000000000000000000000000000000046145b156124d0577f000000000000000000000000000000000000000000000000000000000000000090506124db565b6124d8612b1f565b90505b90565b60006040517f190100000000000000000000000000000000000000000000000000000000000081528360028201528260228201526042812091505092915050565b60008060418351036125605760008060006020860151925060408601519150606086015160001a905061255487828585612bb5565b94509450505050612569565b60006002915091505b9250929050565b60006004811115612584576125836140b3565b5b816004811115612597576125966140b3565b5b03156126d357600160048111156125b1576125b06140b3565b5b8160048111156125c4576125c36140b3565b5b03612604576040517f08c379a00000000000000000000000000000000000000000000000000000000081526004016125fb9061412e565b60405180910390fd5b60026004811115612618576126176140b3565b5b81600481111561262b5761262a6140b3565b5b0361266b576040517f08c379a00000000000000000000000000000000000000000000000000000000081526004016126629061419a565b60405180910390fd5b6003600481111561267f5761267e6140b3565b5b816004811115612692576126916140b3565b5b036126d2576040517f08c379a00000000000000000000000000000000000000000000000000000000081526004016126c99061422c565b60405180910390fd5b5b50565b6060608073ffffffffffffffffffffffffffffffffffffffff1663a1848ff3856126ff866122bb565b85604051602001612710919061426d565b6040516020818303038152906040526040518463ffffffff1660e01b815260040161273d93929190614288565b600060405180830381865afa15801561275a573d6000803e3d6000fd5b505050506040513d6000823e3d601f19601f82011682018060405250810190612783919061436e565b90509392505050565b60006060608073ffffffffffffffffffffffffffffffffffffffff166319e1c5c46127b6866122bb565b856040518363ffffffff1660e01b81526004016127d49291906143b7565b600060405180830381865afa1580156127f1573d6000803e3d6000fd5b505050506040513d6000823e3d601f19601f8201168201806040525081019061281a9190613c5b565b905061282581612c97565b91505092915050565b60006060608073ffffffffffffffffffffffffffffffffffffffff1663c2d9695287612859886122bb565b612862886122bb565b61286b886122bb565b6040518563ffffffff1660e01b815260040161288a94939291906143e7565b600060405180830381865afa1580156128a7573d6000803e3d6000fd5b505050506040513d6000823e3d601f19601f820116820180604052508101906128d09190613c5b565b90506128db81612c97565b915050949350505050565b6000819050919050565b606060006128fd83612ca5565b90506000602067ffffffffffffffff81111561291c5761291b613281565b5b6040519080825280601f01601f19166020018201604052801561294e5781602001600182028036833780820191505090505b5090508181528360208201528092505050919050565b600061296f836115ed565b6129805761297d60006119c5565b92505b612989826115ed565b61299a5761299760006119c5565b91505b6000839050600083905060006129cf60048484608073ffffffffffffffffffffffffffffffffffffffff16635211c6796129f1565b905080935050505092915050565b60006129e98383612cf5565b905092915050565b60006060838388612a01896122bb565b612a0a896122bb565b6040518463ffffffff1660e01b8152600401612a2893929190614288565b600060405180830381865afa158015612a45573d6000803e3d6000fd5b505050506040513d6000823e3d601f19601f82011682018060405250810190612a6e9190613c5b565b9050612a7981612d6e565b91505095945050505050565b60006060608073ffffffffffffffffffffffffffffffffffffffff16635fa55ca784866040518363ffffffff1660e01b8152600401612ac5929190613bbb565b600060405180830381865afa158015612ae2573d6000803e3d6000fd5b505050506040513d6000823e3d601f19601f82011682018060405250810190612b0b9190613c5b565b9050612b1681612c97565b91505092915050565b60007f8b73c3c69bb8fe3d512ecc4cf759cc79239f7b179b0ffacaa9a75d522b39400f7f00000000000000000000000000000000000000000000000000000000000000007f00000000000000000000000000000000000000000000000000000000000000004630604051602001612b9a959493929190614441565b60405160208183030381529060405280519060200120905090565b6000807f7fffffffffffffffffffffffffffffff5d576e7357a4501ddfe92f46681b20a08360001c1115612bf0576000600391509150612c8e565b600060018787878760405160008152602001604052604051612c159493929190614494565b6020604051602081039080840390855afa158015612c37573d6000803e3d6000fd5b505050602060405103519050600073ffffffffffffffffffffffffffffffffffffffff168173ffffffffffffffffffffffffffffffffffffffff1603612c8557600060019250925050612c8e565b80600092509250505b94509492505050565b600060208201519050919050565b60008060ff8360001c169050601f811115612cec576040517fb3512b0c00000000000000000000000000000000000000000000000000000000815260040160405180910390fd5b80915050919050565b6000612d00836115ed565b612d1157612d0e60006119c5565b92505b612d1a826115ed565b612d2b57612d2860006119c5565b91505b600083905060008390506000612d6060048484608073ffffffffffffffffffffffffffffffffffffffff1663eb274b776129f1565b905080935050505092915050565b600060208201519050919050565b600081519050919050565b600082825260208201905092915050565b60005b83811015612db6578082015181840152602081019050612d9b565b60008484015250505050565b6000601f19601f8301169050919050565b6000612dde82612d7c565b612de88185612d87565b9350612df8818560208601612d98565b612e0181612dc2565b840191505092915050565b60006020820190508181036000830152612e268184612dd3565b905092915050565b6000604051905090565b600080fd5b600080fd5b600073ffffffffffffffffffffffffffffffffffffffff82169050919050565b6000612e6d82612e42565b9050919050565b612e7d81612e62565b8114612e8857600080fd5b50565b600081359050612e9a81612e74565b92915050565b6000819050919050565b612eb381612ea0565b8114612ebe57600080fd5b50565b600081359050612ed081612eaa565b92915050565b60008060408385031215612eed57612eec612e38565b5b6000612efb85828601612e8b565b9250506020612f0c85828601612ec1565b9150509250929050565b60008115159050919050565b612f2b81612f16565b82525050565b6000602082019050612f466000830184612f22565b92915050565b612f5581612ea0565b8114612f6057600080fd5b50565b600081359050612f7281612f4c565b92915050565b612f8181612ea0565b8114612f8c57600080fd5b50565b600081359050612f9e81612f78565b92915050565b60008060408385031215612fbb57612fba612e38565b5b6000612fc985828601612f63565b9250506020612fda85828601612f8f565b9150509250929050565b612fed81612ea0565b82525050565b60006020820190506130086000830184612fe4565b92915050565b60008060006060848603121561302757613026612e38565b5b600061303586828701612e8b565b935050602061304686828701612e8b565b925050604061305786828701612ec1565b9150509250925092565b6000806040838503121561307857613077612e38565b5b600061308685828601612e8b565b925050602061309785828601612e8b565b9150509250929050565b6000819050919050565b60006130c66130c16130bc84612ea0565b6130a1565b612ea0565b9050919050565b6130d6816130ab565b82525050565b60006020820190506130f160008301846130cd565b92915050565b6000806000606084860312156131105761310f612e38565b5b600061311e86828701612f63565b935050602061312f86828701612f63565b925050604061314086828701612f8f565b9150509250925092565b600060ff82169050919050565b6131608161314a565b82525050565b600060208201905061317b6000830184613157565b92915050565b600080fd5b60006020828403121561319c5761319b613181565b5b81905092915050565b600080604083850312156131bc576131bb612e38565b5b60006131ca85828601612e8b565b925050602083013567ffffffffffffffff8111156131eb576131ea612e3d565b5b6131f785828601613186565b9150509250929050565b60006040828403121561321757613216613181565b5b81905092915050565b6000806040838503121561323757613236612e38565b5b600061324585828601612e8b565b925050602083013567ffffffffffffffff81111561326657613265612e3d565b5b61327285828601613201565b9150509250929050565b600080fd5b7f4e487b7100000000000000000000000000000000000000000000000000000000600052604160045260246000fd5b6132b982612dc2565b810181811067ffffffffffffffff821117156132d8576132d7613281565b5b80604052505050565b60006132eb612e2e565b90506132f782826132b0565b919050565b600080fd5b6000819050919050565b61331481613301565b811461331f57600080fd5b50565b6000813590506133318161330b565b92915050565b600080fd5b600080fd5b600067ffffffffffffffff82111561335c5761335b613281565b5b61336582612dc2565b9050602081019050919050565b82818337600083830152505050565b600061339461338f84613341565b6132e1565b9050828152602081018484840111156133b0576133af61333c565b5b6133bb848285613372565b509392505050565b600082601f8301126133d8576133d7613337565b5b81356133e8848260208601613381565b91505092915050565b6000604082840312156134075761340661327c565b5b61341160406132e1565b9050600061342184828501613322565b600083015250602082013567ffffffffffffffff811115613445576134446132fc565b5b613451848285016133c3565b60208301525092915050565b6000806040838503121561347457613473612e38565b5b600061348285828601612e8b565b925050602083013567ffffffffffffffff8111156134a3576134a2612e3d565b5b6134af858286016133f1565b9150509250929050565b600063ffffffff82169050919050565b6134d2816134b9565b81146134dd57600080fd5b50565b6000813590506134ef816134c9565b92915050565b60006020828403121561350b5761350a612e38565b5b6000613519848285016134e0565b91505092915050565b60006020828403121561353857613537612e38565b5b600061354684828501612e8b565b91505092915050565b60007fff0000000000000000000000000000000000000000000000000000000000000082169050919050565b6135848161354f565b82525050565b61359381612e62565b82525050565b6135a281613301565b82525050565b600081519050919050565b600082825260208201905092915050565b6000819050602082019050919050565b6135dd81612ea0565b82525050565b60006135ef83836135d4565b60208301905092915050565b6000602082019050919050565b6000613613826135a8565b61361d81856135b3565b9350613628836135c4565b8060005b8381101561365957815161364088826135e3565b975061364b836135fb565b92505060018101905061362c565b5085935050505092915050565b600060e08201905061367b600083018a61357b565b818103602083015261368d8189612dd3565b905081810360408301526136a18188612dd3565b90506136b06060830187612fe4565b6136bd608083018661358a565b6136ca60a0830185613599565b81810360c08301526136dc8184613608565b905098975050505050505050565b60008060006060848603121561370357613702612e38565b5b600061371186828701612e8b565b935050602061372286828701612e8b565b925050604084013567ffffffffffffffff81111561374357613742612e3d565b5b61374f86828701613186565b9150509250925092565b60006020828403121561376f5761376e612e38565b5b600061377d84828501612f63565b91505092915050565b60008060006060848603121561379f5761379e612e38565b5b60006137ad86828701612e8b565b93505060206137be86828701612e8b565b92505060406137cf86828701612f8f565b9150509250925092565b6000602082840312156137ef576137ee612e38565b5b60006137fd84828501612f8f565b91505092915050565b6000806040838503121561381d5761381c612e38565b5b600061382b85828601612e8b565b925050602061383c85828601612f8f565b9150509250929050565b7f4e487b7100000000000000000000000000000000000000000000000000000000600052602260045260246000fd5b6000600282049050600182168061388d57607f821691505b6020821081036138a05761389f613846565b5b50919050565b7f4e487b7100000000000000000000000000000000000000000000000000000000600052601160045260246000fd5b60006138e082612ea0565b91506138eb83612ea0565b9250828201905080821115613903576139026138a6565b5b92915050565b60006020828403121561391f5761391e61327c565b5b61392960206132e1565b9050600082013567ffffffffffffffff811115613949576139486132fc565b5b613955848285016133c3565b60008301525092915050565b600061396d3683613909565b9050919050565b600061398036836133f1565b9050919050565b600060408201905061399c6000830185613599565b6139a96020830184613599565b9392505050565b7f45524332303a2064656372656173656420616c6c6f77616e63652062656c6f7760008201527f207a65726f000000000000000000000000000000000000000000000000000000602082015250565b6000613a0c602583612d87565b9150613a17826139b0565b604082019050919050565b60006020820190508181036000830152613a3b816139ff565b9050919050565b7f45524332303a20617070726f76652066726f6d20746865207a65726f2061646460008201527f7265737300000000000000000000000000000000000000000000000000000000602082015250565b6000613a9e602483612d87565b9150613aa982613a42565b604082019050919050565b60006020820190508181036000830152613acd81613a91565b9050919050565b7f45524332303a20617070726f766520746f20746865207a65726f20616464726560008201527f7373000000000000000000000000000000000000000000000000000000000000602082015250565b6000613b30602283612d87565b9150613b3b82613ad4565b604082019050919050565b60006020820190508181036000830152613b5f81613b23565b9050919050565b600081519050919050565b600082825260208201905092915050565b6000613b8d82613b66565b613b978185613b71565b9350613ba7818560208601612d98565b613bb081612dc2565b840191505092915050565b6000604082019050613bd06000830185613157565b8181036020830152613be28184613b82565b90509392505050565b6000613bfe613bf984613341565b6132e1565b905082815260208101848484011115613c1a57613c1961333c565b5b613c25848285612d98565b509392505050565b600082601f830112613c4257613c41613337565b5b8151613c52848260208601613beb565b91505092915050565b600060208284031215613c7157613c70612e38565b5b600082015167ffffffffffffffff811115613c8f57613c8e612e3d565b5b613c9b84828501613c2d565b91505092915050565b7f45524332303a20696e73756666696369656e7420616c6c6f77616e6365000000600082015250565b6000613cda601d83612d87565b9150613ce582613ca4565b602082019050919050565b60006020820190508181036000830152613d0981613ccd565b9050919050565b7f45524332303a207472616e736665722066726f6d20746865207a65726f20616460008201527f6472657373000000000000000000000000000000000000000000000000000000602082015250565b6000613d6c602583612d87565b9150613d7782613d10565b604082019050919050565b60006020820190508181036000830152613d9b81613d5f565b9050919050565b7f45524332303a207472616e7366657220746f20746865207a65726f206164647260008201527f6573730000000000000000000000000000000000000000000000000000000000602082015250565b6000613dfe602383612d87565b9150613e0982613da2565b604082019050919050565b60006020820190508181036000830152613e2d81613df1565b9050919050565b7f45524332303a207472616e7366657220616d6f756e742065786365656473206260008201527f616c616e63650000000000000000000000000000000000000000000000000000602082015250565b6000613e90602683612d87565b9150613e9b82613e34565b604082019050919050565b60006020820190508181036000830152613ebf81613e83565b9050919050565b600081519050613ed581612eaa565b92915050565b600060208284031215613ef157613ef0612e38565b5b6000613eff84828501613ec6565b91505092915050565b7f45524332303a206d696e7420746f20746865207a65726f206164647265737300600082015250565b6000613f3e601f83612d87565b9150613f4982613f08565b602082019050919050565b60006020820190508181036000830152613f6d81613f31565b9050919050565b7f45524332303a206275726e2066726f6d20746865207a65726f2061646472657360008201527f7300000000000000000000000000000000000000000000000000000000000000602082015250565b6000613fd0602183612d87565b9150613fdb82613f74565b604082019050919050565b60006020820190508181036000830152613fff81613fc3565b9050919050565b7f45524332303a206275726e20616d6f756e7420657863656564732062616c616e60008201527f6365000000000000000000000000000000000000000000000000000000000000602082015250565b6000614062602283612d87565b915061406d82614006565b604082019050919050565b6000602082019050818103600083015261409181614055565b9050919050565b60006020820190506140ad600083018461358a565b92915050565b7f4e487b7100000000000000000000000000000000000000000000000000000000600052602160045260246000fd5b7f45434453413a20696e76616c6964207369676e61747572650000000000000000600082015250565b6000614118601883612d87565b9150614123826140e2565b602082019050919050565b600060208201905081810360008301526141478161410b565b9050919050565b7f45434453413a20696e76616c6964207369676e6174757265206c656e67746800600082015250565b6000614184601f83612d87565b915061418f8261414e565b602082019050919050565b600060208201905081810360008301526141b381614177565b9050919050565b7f45434453413a20696e76616c6964207369676e6174757265202773272076616c60008201527f7565000000000000000000000000000000000000000000000000000000000000602082015250565b6000614216602283612d87565b9150614221826141ba565b604082019050919050565b6000602082019050818103600083015261424581614209565b9050919050565b6000819050919050565b61426761426282613301565b61424c565b82525050565b60006142798284614256565b60208201915081905092915050565b600060608201905061429d6000830186613157565b81810360208301526142af8185613b82565b905081810360408301526142c38184613b82565b9050949350505050565b600067ffffffffffffffff8211156142e8576142e7613281565b5b6142f182612dc2565b9050602081019050919050565b600061431161430c846142cd565b6132e1565b90508281526020810184848401111561432d5761432c61333c565b5b614338848285612d98565b509392505050565b600082601f83011261435557614354613337565b5b81516143658482602086016142fe565b91505092915050565b60006020828403121561438457614383612e38565b5b600082015167ffffffffffffffff8111156143a2576143a1612e3d565b5b6143ae84828501614340565b91505092915050565b600060408201905081810360008301526143d18185613b82565b90506143e06020830184613157565b9392505050565b60006080820190506143fc6000830187613157565b818103602083015261440e8186613b82565b905081810360408301526144228185613b82565b905081810360608301526144368184613b82565b905095945050505050565b600060a0820190506144566000830188613599565b6144636020830187613599565b6144706040830186613599565b61447d6060830185612fe4565b61448a608083018461358a565b9695505050505050565b60006080820190506144a96000830187613599565b6144b66020830186613157565b6144c36040830185613599565b6144d06060830184613599565b9594505050505056fea26469706673582212205aa60062abfeba0ed5bb4b3c56b955052e0e044dfbaf2268a5b6a2f4d3a1b95064736f6c63430008180033",
  "linkReferences": {},
  "deployedLinkReferences": {}
}