{
  "contracts/wallet/WalletFactory.sol": {
    "WalletFactory": {
      "abi": [
        {
          "inputs": [
            {
              "internalType": "address",
              "name": "_verifierContract",
              "type": "address"
            }
          ],
          "stateMutability": "nonpayable",
          "type": "constructor"
        },
        {
          "inputs": [
            {
              "internalType": "string",
              "name": "username",
              "type": "string"
            },
            {
              "internalType": "uint256",
              "name": "nonce",
              "type": "uint256"
            },
            {
              "internalType": "address",
              "name": "contractAddress",
              "type": "address"
            },
            {
              "internalType": "uint256",
              "name": "value",
              "type": "uint256"
            },
            {
              "internalType": "bytes",
              "name": "data",
              "type": "bytes"
            },
            {
              "components": [
                {
                  "internalType": "uint256[2]",
                  "name": "pa",
                  "type": "uint256[2]"
                },
                {
                  "internalType": "uint256[2][2]",
                  "name": "pb",
                  "type": "uint256[2][2]"
                },
                {
                  "internalType": "uint256[2]",
                  "name": "pc",
                  "type": "uint256[2]"
                }
              ],
              "internalType": "struct WalletFactory.Proof",
              "name": "proof",
              "type": "tuple"
            }
          ],
          "name": "executeWalletTx",
          "outputs": [
            {
              "internalType": "bytes",
              "name": "",
              "type": "bytes"
            }
          ],
          "stateMutability": "nonpayable",
          "type": "function"
        },
        {
          "inputs": [
            {
              "internalType": "string",
              "name": "_username",
              "type": "string"
            },
            {
              "internalType": "uint256",
              "name": "_passwordHash",
              "type": "uint256"
            }
          ],
          "name": "newWallet",
          "outputs": [
            {
              "internalType": "address",
              "name": "",
              "type": "address"
            }
          ],
          "stateMutability": "nonpayable",
          "type": "function"
        },
        {
          "inputs": [
            {
              "internalType": "string",
              "name": "",
              "type": "string"
            }
          ],
          "name": "userPasswordHash",
          "outputs": [
            {
              "internalType": "uint256",
              "name": "",
              "type": "uint256"
            }
          ],
          "stateMutability": "view",
          "type": "function"
        },
        {
          "inputs": [
            {
              "internalType": "string",
              "name": "",
              "type": "string"
            }
          ],
          "name": "usernameInfo",
          "outputs": [
            {
              "internalType": "bool",
              "name": "registered",
              "type": "bool"
            },
            {
              "internalType": "address",
              "name": "walletAddress",
              "type": "address"
            }
          ],
          "stateMutability": "view",
          "type": "function"
        },
        {
          "inputs": [],
          "name": "verifierContract",
          "outputs": [
            {
              "internalType": "address",
              "name": "",
              "type": "address"
            }
          ],
          "stateMutability": "view",
          "type": "function"
        }
      ],
      "evm": {
        "bytecode": {
          "linkReferences": {},
          "object": "60806040523480156200001157600080fd5b50604051620024dd380380620024dd8339818101604052810190620000379190620000e9565b80600260006101000a81548173ffffffffffffffffffffffffffffffffffffffff021916908373ffffffffffffffffffffffffffffffffffffffff160217905550506200011b565b600080fd5b600073ffffffffffffffffffffffffffffffffffffffff82169050919050565b6000620000b18262000084565b9050919050565b620000c381620000a4565b8114620000cf57600080fd5b50565b600081519050620000e381620000b8565b92915050565b6000602082840312156200010257620001016200007f565b5b60006200011284828501620000d2565b91505092915050565b6123b2806200012b6000396000f3fe60806040523480156200001157600080fd5b50600436106200005e5760003560e01c8063660fc03b146200006357806380410c21146200009957806381fd65f314620000d05780639ddd7cc61462000106578063cf695688146200013c575b600080fd5b6200008160048036038101906200007b919062000958565b6200015e565b60405162000090919062000a03565b60405180910390f35b620000b76004803603810190620000b1919062000a20565b620002cf565b604051620000c792919062000a8e565b60405180910390f35b620000ee6004803603810190620000e8919062000a20565b62000336565b604051620000fd919062000acc565b60405180910390f35b6200012460048036038101906200011e919062000dd0565b62000364565b60405162000133919062000f34565b60405180910390f35b620001466200072c565b60405162000155919062000a03565b60405180910390f35b600080151560008460405162000175919062000fa5565b908152602001604051809103902060000160009054906101000a900460ff16151514620001d9576040517f08c379a0000000000000000000000000000000000000000000000000000000008152600401620001d0906200101f565b60405180910390fd5b6000620001e68462000752565b905060405180604001604052806001151581526020018273ffffffffffffffffffffffffffffffffffffffff1681525060008560405162000228919062000fa5565b908152602001604051809103902060008201518160000160006101000a81548160ff02191690831515021790555060208201518160000160016101000a81548173ffffffffffffffffffffffffffffffffffffffff021916908373ffffffffffffffffffffffffffffffffffffffff16021790555090505082600385604051620002b3919062000fa5565b9081526020016040518091039020819055508091505092915050565b6000818051602081018201805184825260208301602085012081835280955050505050506000915090508060000160009054906101000a900460ff16908060000160019054906101000a900473ffffffffffffffffffffffffffffffffffffffff16905082565b6003818051602081018201805184825260208301602085012081835280955050505050506000915090505481565b6060600115156000886040516200037c919062000fa5565b908152602001604051809103902060000160009054906101000a900460ff16151514620003e0576040517f08c379a0000000000000000000000000000000000000000000000000000000008152600401620003d79062001091565b60405180910390fd5b60001515600188604051620003f6919062000fa5565b9081526020016040518091039020600088815260200190815260200160002060009054906101000a900460ff1615151462000468576040517f08c379a00000000000000000000000000000000000000000000000000000000081526004016200045f9062001103565b60405180910390fd5b600080886040516200047b919062000fa5565b90815260200160405180910390206040518060400160405290816000820160009054906101000a900460ff161515151581526020016000820160019054906101000a900473ffffffffffffffffffffffffffffffffffffffff1673ffffffffffffffffffffffffffffffffffffffff1673ffffffffffffffffffffffffffffffffffffffff168152505090506000604051806040016040528060038b60405162000526919062000fa5565b90815260200160405180910390205481526020018981525090506000600260009054906101000a900473ffffffffffffffffffffffffffffffffffffffff1673ffffffffffffffffffffffffffffffffffffffff1663f5c9d69e866000015187602001518860400151866040518563ffffffff1660e01b8152600401620005b19493929190620012f8565b602060405180830381865afa158015620005cf573d6000803e3d6000fd5b505050506040513d601f19601f82011682018060405250810190620005f5919062001378565b9050806200063a576040517f08c379a00000000000000000000000000000000000000000000000000000000081526004016200063190620013fa565b60405180910390fd5b60008360200151905060008173ffffffffffffffffffffffffffffffffffffffff1663f48bf4c38b8b8b6040518463ffffffff1660e01b815260040162000684939291906200141c565b6000604051808303816000875af1158015620006a4573d6000803e3d6000fd5b505050506040513d6000823e3d601f19601f82011682018060405250810190620006cf9190620014de565b90506001808d604051620006e4919062000fa5565b908152602001604051809103902060008d815260200190815260200160002060006101000a81548160ff02191690831515021790555080955050505050509695505050505050565b600260009054906101000a900473ffffffffffffffffffffffffffffffffffffffff1681565b60008082604051620007649062000799565b62000770919062001570565b604051809103906000f0801580156200078d573d6000803e3d6000fd5b50905080915050919050565b610de8806200159583390190565b6000604051905090565b600080fd5b600080fd5b600080fd5b600080fd5b6000601f19601f8301169050919050565b7f4e487b7100000000000000000000000000000000000000000000000000000000600052604160045260246000fd5b6200081082620007c5565b810181811067ffffffffffffffff82111715620008325762000831620007d6565b5b80604052505050565b600062000847620007a7565b905062000855828262000805565b919050565b600067ffffffffffffffff821115620008785762000877620007d6565b5b6200088382620007c5565b9050602081019050919050565b82818337600083830152505050565b6000620008b6620008b0846200085a565b6200083b565b905082815260208101848484011115620008d557620008d4620007c0565b5b620008e284828562000890565b509392505050565b600082601f830112620009025762000901620007bb565b5b8135620009148482602086016200089f565b91505092915050565b6000819050919050565b62000932816200091d565b81146200093e57600080fd5b50565b600081359050620009528162000927565b92915050565b60008060408385031215620009725762000971620007b1565b5b600083013567ffffffffffffffff811115620009935762000992620007b6565b5b620009a185828601620008ea565b9250506020620009b48582860162000941565b9150509250929050565b600073ffffffffffffffffffffffffffffffffffffffff82169050919050565b6000620009eb82620009be565b9050919050565b620009fd81620009de565b82525050565b600060208201905062000a1a6000830184620009f2565b92915050565b60006020828403121562000a395762000a38620007b1565b5b600082013567ffffffffffffffff81111562000a5a5762000a59620007b6565b5b62000a6884828501620008ea565b91505092915050565b60008115159050919050565b62000a888162000a71565b82525050565b600060408201905062000aa5600083018562000a7d565b62000ab46020830184620009f2565b9392505050565b62000ac6816200091d565b82525050565b600060208201905062000ae3600083018462000abb565b92915050565b62000af481620009de565b811462000b0057600080fd5b50565b60008135905062000b148162000ae9565b92915050565b600067ffffffffffffffff82111562000b385762000b37620007d6565b5b62000b4382620007c5565b9050602081019050919050565b600062000b6762000b618462000b1a565b6200083b565b90508281526020810184848401111562000b865762000b85620007c0565b5b62000b9384828562000890565b509392505050565b600082601f83011262000bb35762000bb2620007bb565b5b813562000bc584826020860162000b50565b91505092915050565b600080fd5b600067ffffffffffffffff82111562000bf15762000bf0620007d6565b5b602082029050919050565b600080fd5b600062000c1862000c128462000bd3565b6200083b565b9050806020840283018581111562000c355762000c3462000bfc565b5b835b8181101562000c62578062000c4d888262000941565b84526020840193505060208101905062000c37565b5050509392505050565b600082601f83011262000c845762000c83620007bb565b5b600262000c9384828562000c01565b91505092915050565b600067ffffffffffffffff82111562000cba5762000cb9620007d6565b5b602082029050919050565b600062000cdc62000cd68462000c9c565b6200083b565b9050806040840283018581111562000cf95762000cf862000bfc565b5b835b8181101562000d26578062000d11888262000c6c565b84526020840193505060408101905062000cfb565b5050509392505050565b600082601f83011262000d485762000d47620007bb565b5b600262000d5784828562000cc5565b91505092915050565b6000610100828403121562000d7a5762000d7962000bce565b5b62000d8660606200083b565b9050600062000d988482850162000c6c565b600083015250604062000dae8482850162000d30565b60208301525060c062000dc48482850162000c6c565b60408301525092915050565b6000806000806000806101a0878903121562000df15762000df0620007b1565b5b600087013567ffffffffffffffff81111562000e125762000e11620007b6565b5b62000e2089828a01620008ea565b965050602062000e3389828a0162000941565b955050604062000e4689828a0162000b03565b945050606062000e5989828a0162000941565b935050608087013567ffffffffffffffff81111562000e7d5762000e7c620007b6565b5b62000e8b89828a0162000b9b565b92505060a062000e9e89828a0162000d60565b9150509295509295509295565b600081519050919050565b600082825260208201905092915050565b60005b8381101562000ee757808201518184015260208101905062000eca565b60008484015250505050565b600062000f008262000eab565b62000f0c818562000eb6565b935062000f1e81856020860162000ec7565b62000f2981620007c5565b840191505092915050565b6000602082019050818103600083015262000f50818462000ef3565b905092915050565b600081519050919050565b600081905092915050565b600062000f7b8262000f58565b62000f87818562000f63565b935062000f9981856020860162000ec7565b80840191505092915050565b600062000fb3828462000f6e565b915081905092915050565b600082825260208201905092915050565b7f557365726e616d6520616c726561647920757365640000000000000000000000600082015250565b60006200100760158362000fbe565b9150620010148262000fcf565b602082019050919050565b600060208201905081810360008301526200103a8162000ff8565b9050919050565b7f557365726e616d65206973206e6f742072656769737465726564000000000000600082015250565b600062001079601a8362000fbe565b9150620010868262001041565b602082019050919050565b60006020820190508181036000830152620010ac816200106a565b9050919050565b7f496e76616c6964206e6f6e636500000000000000000000000000000000000000600082015250565b6000620010eb600d8362000fbe565b9150620010f882620010b3565b602082019050919050565b600060208201905081810360008301526200111e81620010dc565b9050919050565b600060029050919050565b600081905092915050565b6000819050919050565b62001150816200091d565b82525050565b600062001164838362001145565b60208301905092915050565b6000602082019050919050565b620011888162001125565b62001194818462001130565b9250620011a1826200113b565b8060005b83811015620011d8578151620011bc878262001156565b9650620011c98362001170565b925050600181019050620011a5565b505050505050565b600060029050919050565b600081905092915050565b6000819050919050565b600081905092915050565b620012168162001125565b62001222818462001200565b92506200122f826200113b565b8060005b83811015620012665781516200124a878262001156565b9650620012578362001170565b92505060018101905062001233565b505050505050565b60006200127c83836200120b565b60408301905092915050565b6000602082019050919050565b620012a081620011e0565b620012ac8184620011eb565b9250620012b982620011f6565b8060005b83811015620012f0578151620012d487826200126e565b9650620012e18362001288565b925050600181019050620012bd565b505050505050565b6000610140820190506200131060008301876200117d565b6200131f604083018662001295565b6200132e60c08301856200117d565b6200133e6101008301846200117d565b95945050505050565b620013528162000a71565b81146200135e57600080fd5b50565b600081519050620013728162001347565b92915050565b600060208284031215620013915762001390620007b1565b5b6000620013a18482850162001361565b91505092915050565b7f7a6b534e41524b20766572696669636174696f6e206661696c65640000000000600082015250565b6000620013e2601b8362000fbe565b9150620013ef82620013aa565b602082019050919050565b600060208201905081810360008301526200141581620013d3565b9050919050565b6000606082019050620014336000830186620009f2565b62001442602083018562000abb565b818103604083015262001456818462000ef3565b9050949350505050565b600062001477620014718462000b1a565b6200083b565b905082815260208101848484011115620014965762001495620007c0565b5b620014a384828562000ec7565b509392505050565b600082601f830112620014c357620014c2620007bb565b5b8151620014d584826020860162001460565b91505092915050565b600060208284031215620014f757620014f6620007b1565b5b600082015167ffffffffffffffff811115620015185762001517620007b6565b5b6200152684828501620014ab565b91505092915050565b60006200153c8262000f58565b62001548818562000fbe565b93506200155a81856020860162000ec7565b6200156581620007c5565b840191505092915050565b600060208201905081810360008301526200158c81846200152f565b90509291505056fe60806040523480156200001157600080fd5b5060405162000de838038062000de8833981810160405281019062000037919062000223565b336000806101000a81548173ffffffffffffffffffffffffffffffffffffffff021916908373ffffffffffffffffffffffffffffffffffffffff1602179055508060019081620000889190620004bf565b5050620005a6565b6000604051905090565b600080fd5b600080fd5b600080fd5b600080fd5b6000601f19601f8301169050919050565b7f4e487b7100000000000000000000000000000000000000000000000000000000600052604160045260246000fd5b620000f982620000ae565b810181811067ffffffffffffffff821117156200011b576200011a620000bf565b5b80604052505050565b60006200013062000090565b90506200013e8282620000ee565b919050565b600067ffffffffffffffff821115620001615762000160620000bf565b5b6200016c82620000ae565b9050602081019050919050565b60005b83811015620001995780820151818401526020810190506200017c565b60008484015250505050565b6000620001bc620001b68462000143565b62000124565b905082815260208101848484011115620001db57620001da620000a9565b5b620001e884828562000179565b509392505050565b600082601f830112620002085762000207620000a4565b5b81516200021a848260208601620001a5565b91505092915050565b6000602082840312156200023c576200023b6200009a565b5b600082015167ffffffffffffffff8111156200025d576200025c6200009f565b5b6200026b84828501620001f0565b91505092915050565b600081519050919050565b7f4e487b7100000000000000000000000000000000000000000000000000000000600052602260045260246000fd5b60006002820490506001821680620002c757607f821691505b602082108103620002dd57620002dc6200027f565b5b50919050565b60008190508160005260206000209050919050565b60006020601f8301049050919050565b600082821b905092915050565b600060088302620003477fffffffffffffffffffffffffffffffffffffffffffffffffffffffffffffffff8262000308565b62000353868362000308565b95508019841693508086168417925050509392505050565b6000819050919050565b6000819050919050565b6000620003a06200039a62000394846200036b565b62000375565b6200036b565b9050919050565b6000819050919050565b620003bc836200037f565b620003d4620003cb82620003a7565b84845462000315565b825550505050565b600090565b620003eb620003dc565b620003f8818484620003b1565b505050565b5b81811015620004205762000414600082620003e1565b600181019050620003fe565b5050565b601f8211156200046f576200043981620002e3565b6200044484620002f8565b8101602085101562000454578190505b6200046c6200046385620002f8565b830182620003fd565b50505b505050565b600082821c905092915050565b6000620004946000198460080262000474565b1980831691505092915050565b6000620004af838362000481565b9150826002028217905092915050565b620004ca8262000274565b67ffffffffffffffff811115620004e657620004e5620000bf565b5b620004f28254620002ae565b620004ff82828562000424565b600060209050601f83116001811462000537576000841562000522578287015190505b6200052e8582620004a1565b8655506200059e565b601f1984166200054786620002e3565b60005b8281101562000571578489015182556001820191506020850194506020810190506200054a565b868310156200059157848901516200058d601f89168262000481565b8355505b6001600288020188555050505b505050505050565b61083280620005b66000396000f3fe6080604052600436106100385760003560e01c806361fac54d14610041578063966dae0e1461006c578063f48bf4c3146100975761003f565b3661003f57005b005b34801561004d57600080fd5b506100566100d4565b6040516100639190610362565b60405180910390f35b34801561007857600080fd5b50610081610162565b60405161008e91906103c5565b60405180910390f35b3480156100a357600080fd5b506100be60048036038101906100b9919061058b565b610186565b6040516100cb919061064f565b60405180910390f35b600180546100e1906106a0565b80601f016020809104026020016040519081016040528092919081815260200182805461010d906106a0565b801561015a5780601f1061012f5761010080835404028352916020019161015a565b820191906000526020600020905b81548152906001019060200180831161013d57829003601f168201915b505050505081565b60008054906101000a900473ffffffffffffffffffffffffffffffffffffffff1681565b606060008054906101000a900473ffffffffffffffffffffffffffffffffffffffff1673ffffffffffffffffffffffffffffffffffffffff163373ffffffffffffffffffffffffffffffffffffffff1614610216576040517f08c379a000000000000000000000000000000000000000000000000000000000815260040161020d9061071d565b60405180910390fd5b6000808573ffffffffffffffffffffffffffffffffffffffff16858560405161023f9190610779565b60006040518083038185875af1925050503d806000811461027c576040519150601f19603f3d011682016040523d82523d6000602084013e610281565b606091505b5091509150816102c6576040517f08c379a00000000000000000000000000000000000000000000000000000000081526004016102bd906107dc565b60405180910390fd5b80925050509392505050565b600081519050919050565b600082825260208201905092915050565b60005b8381101561030c5780820151818401526020810190506102f1565b60008484015250505050565b6000601f19601f8301169050919050565b6000610334826102d2565b61033e81856102dd565b935061034e8185602086016102ee565b61035781610318565b840191505092915050565b6000602082019050818103600083015261037c8184610329565b905092915050565b600073ffffffffffffffffffffffffffffffffffffffff82169050919050565b60006103af82610384565b9050919050565b6103bf816103a4565b82525050565b60006020820190506103da60008301846103b6565b92915050565b6000604051905090565b600080fd5b600080fd5b6103fd816103a4565b811461040857600080fd5b50565b60008135905061041a816103f4565b92915050565b6000819050919050565b61043381610420565b811461043e57600080fd5b50565b6000813590506104508161042a565b92915050565b600080fd5b600080fd5b7f4e487b7100000000000000000000000000000000000000000000000000000000600052604160045260246000fd5b61049882610318565b810181811067ffffffffffffffff821117156104b7576104b6610460565b5b80604052505050565b60006104ca6103e0565b90506104d6828261048f565b919050565b600067ffffffffffffffff8211156104f6576104f5610460565b5b6104ff82610318565b9050602081019050919050565b82818337600083830152505050565b600061052e610529846104db565b6104c0565b90508281526020810184848401111561054a5761054961045b565b5b61055584828561050c565b509392505050565b600082601f83011261057257610571610456565b5b813561058284826020860161051b565b91505092915050565b6000806000606084860312156105a4576105a36103ea565b5b60006105b28682870161040b565b93505060206105c386828701610441565b925050604084013567ffffffffffffffff8111156105e4576105e36103ef565b5b6105f08682870161055d565b9150509250925092565b600081519050919050565b600082825260208201905092915050565b6000610621826105fa565b61062b8185610605565b935061063b8185602086016102ee565b61064481610318565b840191505092915050565b600060208201905081810360008301526106698184610616565b905092915050565b7f4e487b7100000000000000000000000000000000000000000000000000000000600052602260045260246000fd5b600060028204905060018216806106b857607f821691505b6020821081036106cb576106ca610671565b5b50919050565b7f6f6e6c7920666163746f72792063616e2063616c6c0000000000000000000000600082015250565b60006107076015836102dd565b9150610712826106d1565b602082019050919050565b60006020820190508181036000830152610736816106fa565b9050919050565b600081905092915050565b6000610753826105fa565b61075d818561073d565b935061076d8185602086016102ee565b80840191505092915050565b60006107858284610748565b915081905092915050565b7f65787465726e616c2063616c6c20726576657274656400000000000000000000600082015250565b60006107c66016836102dd565b91506107d182610790565b602082019050919050565b600060208201905081810360008301526107f5816107b9565b905091905056fea264697066735822122017a292f6badaa82148f805440402795b67b892167bcce7b185d01d3c3aadf6a264736f6c63430008180033a2646970667358221220680bdcf1e784a4e4789162d73d41dd5ab14317df8e2afaed3bf3f621b5f85c8a64736f6c63430008180033",
          "opcodes": "PUSH1 0x80 PUSH1 0x40 MSTORE CALLVALUE DUP1 ISZERO PUSH3 0x11 JUMPI PUSH1 0x0 DUP1 REVERT JUMPDEST POP PUSH1 0x40 MLOAD PUSH3 0x24DD CODESIZE SUB DUP1 PUSH3 0x24DD DUP4 CODECOPY DUP2 DUP2 ADD PUSH1 0x40 MSTORE DUP2 ADD SWAP1 PUSH3 0x37 SWAP2 SWAP1 PUSH3 0xE9 JUMP JUMPDEST DUP1 PUSH1 0x2 PUSH1 0x0 PUSH2 0x100 EXP DUP2 SLOAD DUP2 PUSH20 0xFFFFFFFFFFFFFFFFFFFFFFFFFFFFFFFFFFFFFFFF MUL NOT AND SWAP1 DUP4 PUSH20 0xFFFFFFFFFFFFFFFFFFFFFFFFFFFFFFFFFFFFFFFF AND MUL OR SWAP1 SSTORE POP POP PUSH3 0x11B JUMP JUMPDEST PUSH1 0x0 DUP1 REVERT JUMPDEST PUSH1 0x0 PUSH20 0xFFFFFFFFFFFFFFFFFFFFFFFFFFFFFFFFFFFFFFFF DUP3 AND SWAP1 POP SWAP2 SWAP1 POP JUMP JUMPDEST PUSH1 0x0 PUSH3 0xB1 DUP3 PUSH3 0x84 JUMP JUMPDEST SWAP1 POP SWAP2 SWAP1 POP JUMP JUMPDEST PUSH3 0xC3 DUP2 PUSH3 0xA4 JUMP JUMPDEST DUP2 EQ PUSH3 0xCF JUMPI PUSH1 0x0 DUP1 REVERT JUMPDEST POP JUMP JUMPDEST PUSH1 0x0 DUP2 MLOAD SWAP1 POP PUSH3 0xE3 DUP2 PUSH3 0xB8 JUMP JUMPDEST SWAP3 SWAP2 POP POP JUMP JUMPDEST PUSH1 0x0 PUSH1 0x20 DUP3 DUP5 SUB SLT ISZERO PUSH3 0x102 JUMPI PUSH3 0x101 PUSH3 0x7F JUMP JUMPDEST JUMPDEST PUSH1 0x0 PUSH3 0x112 DUP5 DUP3 DUP6 ADD PUSH3 0xD2 JUMP JUMPDEST SWAP2 POP POP SWAP3 SWAP2 POP POP JUMP JUMPDEST PUSH2 0x23B2 DUP1 PUSH3 0x12B PUSH1 0x0 CODECOPY PUSH1 0x0 RETURN INVALID PUSH1 0x80 PUSH1 0x40 MSTORE CALLVALUE DUP1 ISZERO PUSH3 0x11 JUMPI PUSH1 0x0 DUP1 REVERT JUMPDEST POP PUSH1 0x4 CALLDATASIZE LT PUSH3 0x5E JUMPI PUSH1 0x0 CALLDATALOAD PUSH1 0xE0 SHR DUP1 PUSH4 0x660FC03B EQ PUSH3 0x63 JUMPI DUP1 PUSH4 0x80410C21 EQ PUSH3 0x99 JUMPI DUP1 PUSH4 0x81FD65F3 EQ PUSH3 0xD0 JUMPI DUP1 PUSH4 0x9DDD7CC6 EQ PUSH3 0x106 JUMPI DUP1 PUSH4 0xCF695688 EQ PUSH3 0x13C JUMPI JUMPDEST PUSH1 0x0 DUP1 REVERT JUMPDEST PUSH3 0x81 PUSH1 0x4 DUP1 CALLDATASIZE SUB DUP2 ADD SWAP1 PUSH3 0x7B SWAP2 SWAP1 PUSH3 0x958 JUMP JUMPDEST PUSH3 0x15E JUMP JUMPDEST PUSH1 0x40 MLOAD PUSH3 0x90 SWAP2 SWAP1 PUSH3 0xA03 JUMP JUMPDEST PUSH1 0x40 MLOAD DUP1 SWAP2 SUB SWAP1 RETURN JUMPDEST PUSH3 0xB7 PUSH1 0x4 DUP1 CALLDATASIZE SUB DUP2 ADD SWAP1 PUSH3 0xB1 SWAP2 SWAP1 PUSH3 0xA20 JUMP JUMPDEST PUSH3 0x2CF JUMP JUMPDEST PUSH1 0x40 MLOAD PUSH3 0xC7 SWAP3 SWAP2 SWAP1 PUSH3 0xA8E JUMP JUMPDEST PUSH1 0x40 MLOAD DUP1 SWAP2 SUB SWAP1 RETURN JUMPDEST PUSH3 0xEE PUSH1 0x4 DUP1 CALLDATASIZE SUB DUP2 ADD SWAP1 PUSH3 0xE8 SWAP2 SWAP1 PUSH3 0xA20 JUMP JUMPDEST PUSH3 0x336 JUMP JUMPDEST PUSH1 0x40 MLOAD PUSH3 0xFD SWAP2 SWAP1 PUSH3 0xACC JUMP JUMPDEST PUSH1 0x40 MLOAD DUP1 SWAP2 SUB SWAP1 RETURN JUMPDEST PUSH3 0x124 PUSH1 0x4 DUP1 CALLDATASIZE SUB DUP2 ADD SWAP1 PUSH3 0x11E SWAP2 SWAP1 PUSH3 0xDD0 JUMP JUMPDEST PUSH3 0x364 JUMP JUMPDEST PUSH1 0x40 MLOAD PUSH3 0x133 SWAP2 SWAP1 PUSH3 0xF34 JUMP JUMPDEST PUSH1 0x40 MLOAD DUP1 SWAP2 SUB SWAP1 RETURN JUMPDEST PUSH3 0x146 PUSH3 0x72C JUMP JUMPDEST PUSH1 0x40 MLOAD PUSH3 0x155 SWAP2 SWAP1 PUSH3 0xA03 JUMP JUMPDEST PUSH1 0x40 MLOAD DUP1 SWAP2 SUB SWAP1 RETURN JUMPDEST PUSH1 0x0 DUP1 ISZERO ISZERO PUSH1 0x0 DUP5 PUSH1 0x40 MLOAD PUSH3 0x175 SWAP2 SWAP1 PUSH3 0xFA5 JUMP JUMPDEST SWAP1 DUP2 MSTORE PUSH1 0x20 ADD PUSH1 0x40 MLOAD DUP1 SWAP2 SUB SWAP1 KECCAK256 PUSH1 0x0 ADD PUSH1 0x0 SWAP1 SLOAD SWAP1 PUSH2 0x100 EXP SWAP1 DIV PUSH1 0xFF AND ISZERO ISZERO EQ PUSH3 0x1D9 JUMPI PUSH1 0x40 MLOAD PUSH32 0x8C379A000000000000000000000000000000000000000000000000000000000 DUP2 MSTORE PUSH1 0x4 ADD PUSH3 0x1D0 SWAP1 PUSH3 0x101F JUMP JUMPDEST PUSH1 0x40 MLOAD DUP1 SWAP2 SUB SWAP1 REVERT JUMPDEST PUSH1 0x0 PUSH3 0x1E6 DUP5 PUSH3 0x752 JUMP JUMPDEST SWAP1 POP PUSH1 0x40 MLOAD DUP1 PUSH1 0x40 ADD PUSH1 0x40 MSTORE DUP1 PUSH1 0x1 ISZERO ISZERO DUP2 MSTORE PUSH1 0x20 ADD DUP3 PUSH20 0xFFFFFFFFFFFFFFFFFFFFFFFFFFFFFFFFFFFFFFFF AND DUP2 MSTORE POP PUSH1 0x0 DUP6 PUSH1 0x40 MLOAD PUSH3 0x228 SWAP2 SWAP1 PUSH3 0xFA5 JUMP JUMPDEST SWAP1 DUP2 MSTORE PUSH1 0x20 ADD PUSH1 0x40 MLOAD DUP1 SWAP2 SUB SWAP1 KECCAK256 PUSH1 0x0 DUP3 ADD MLOAD DUP2 PUSH1 0x0 ADD PUSH1 0x0 PUSH2 0x100 EXP DUP2 SLOAD DUP2 PUSH1 0xFF MUL NOT AND SWAP1 DUP4 ISZERO ISZERO MUL OR SWAP1 SSTORE POP PUSH1 0x20 DUP3 ADD MLOAD DUP2 PUSH1 0x0 ADD PUSH1 0x1 PUSH2 0x100 EXP DUP2 SLOAD DUP2 PUSH20 0xFFFFFFFFFFFFFFFFFFFFFFFFFFFFFFFFFFFFFFFF MUL NOT AND SWAP1 DUP4 PUSH20 0xFFFFFFFFFFFFFFFFFFFFFFFFFFFFFFFFFFFFFFFF AND MUL OR SWAP1 SSTORE POP SWAP1 POP POP DUP3 PUSH1 0x3 DUP6 PUSH1 0x40 MLOAD PUSH3 0x2B3 SWAP2 SWAP1 PUSH3 0xFA5 JUMP JUMPDEST SWAP1 DUP2 MSTORE PUSH1 0x20 ADD PUSH1 0x40 MLOAD DUP1 SWAP2 SUB SWAP1 KECCAK256 DUP2 SWAP1 SSTORE POP DUP1 SWAP2 POP POP SWAP3 SWAP2 POP POP JUMP JUMPDEST PUSH1 0x0 DUP2 DUP1 MLOAD PUSH1 0x20 DUP2 ADD DUP3 ADD DUP1 MLOAD DUP5 DUP3 MSTORE PUSH1 0x20 DUP4 ADD PUSH1 0x20 DUP6 ADD KECCAK256 DUP2 DUP4 MSTORE DUP1 SWAP6 POP POP POP POP POP POP PUSH1 0x0 SWAP2 POP SWAP1 POP DUP1 PUSH1 0x0 ADD PUSH1 0x0 SWAP1 SLOAD SWAP1 PUSH2 0x100 EXP SWAP1 DIV PUSH1 0xFF AND SWAP1 DUP1 PUSH1 0x0 ADD PUSH1 0x1 SWAP1 SLOAD SWAP1 PUSH2 0x100 EXP SWAP1 DIV PUSH20 0xFFFFFFFFFFFFFFFFFFFFFFFFFFFFFFFFFFFFFFFF AND SWAP1 POP DUP3 JUMP JUMPDEST PUSH1 0x3 DUP2 DUP1 MLOAD PUSH1 0x20 DUP2 ADD DUP3 ADD DUP1 MLOAD DUP5 DUP3 MSTORE PUSH1 0x20 DUP4 ADD PUSH1 0x20 DUP6 ADD KECCAK256 DUP2 DUP4 MSTORE DUP1 SWAP6 POP POP POP POP POP POP PUSH1 0x0 SWAP2 POP SWAP1 POP SLOAD DUP2 JUMP JUMPDEST PUSH1 0x60 PUSH1 0x1 ISZERO ISZERO PUSH1 0x0 DUP9 PUSH1 0x40 MLOAD PUSH3 0x37C SWAP2 SWAP1 PUSH3 0xFA5 JUMP JUMPDEST SWAP1 DUP2 MSTORE PUSH1 0x20 ADD PUSH1 0x40 MLOAD DUP1 SWAP2 SUB SWAP1 KECCAK256 PUSH1 0x0 ADD PUSH1 0x0 SWAP1 SLOAD SWAP1 PUSH2 0x100 EXP SWAP1 DIV PUSH1 0xFF AND ISZERO ISZERO EQ PUSH3 0x3E0 JUMPI PUSH1 0x40 MLOAD PUSH32 0x8C379A000000000000000000000000000000000000000000000000000000000 DUP2 MSTORE PUSH1 0x4 ADD PUSH3 0x3D7 SWAP1 PUSH3 0x1091 JUMP JUMPDEST PUSH1 0x40 MLOAD DUP1 SWAP2 SUB SWAP1 REVERT JUMPDEST PUSH1 0x0 ISZERO ISZERO PUSH1 0x1 DUP9 PUSH1 0x40 MLOAD PUSH3 0x3F6 SWAP2 SWAP1 PUSH3 0xFA5 JUMP JUMPDEST SWAP1 DUP2 MSTORE PUSH1 0x20 ADD PUSH1 0x40 MLOAD DUP1 SWAP2 SUB SWAP1 KECCAK256 PUSH1 0x0 DUP9 DUP2 MSTORE PUSH1 0x20 ADD SWAP1 DUP2 MSTORE PUSH1 0x20 ADD PUSH1 0x0 KECCAK256 PUSH1 0x0 SWAP1 SLOAD SWAP1 PUSH2 0x100 EXP SWAP1 DIV PUSH1 0xFF AND ISZERO ISZERO EQ PUSH3 0x468 JUMPI PUSH1 0x40 MLOAD PUSH32 0x8C379A000000000000000000000000000000000000000000000000000000000 DUP2 MSTORE PUSH1 0x4 ADD PUSH3 0x45F SWAP1 PUSH3 0x1103 JUMP JUMPDEST PUSH1 0x40 MLOAD DUP1 SWAP2 SUB SWAP1 REVERT JUMPDEST PUSH1 0x0 DUP1 DUP9 PUSH1 0x40 MLOAD PUSH3 0x47B SWAP2 SWAP1 PUSH3 0xFA5 JUMP JUMPDEST SWAP1 DUP2 MSTORE PUSH1 0x20 ADD PUSH1 0x40 MLOAD DUP1 SWAP2 SUB SWAP1 KECCAK256 PUSH1 0x40 MLOAD DUP1 PUSH1 0x40 ADD PUSH1 0x40 MSTORE SWAP1 DUP2 PUSH1 0x0 DUP3 ADD PUSH1 0x0 SWAP1 SLOAD SWAP1 PUSH2 0x100 EXP SWAP1 DIV PUSH1 0xFF AND ISZERO ISZERO ISZERO ISZERO DUP2 MSTORE PUSH1 0x20 ADD PUSH1 0x0 DUP3 ADD PUSH1 0x1 SWAP1 SLOAD SWAP1 PUSH2 0x100 EXP SWAP1 DIV PUSH20 0xFFFFFFFFFFFFFFFFFFFFFFFFFFFFFFFFFFFFFFFF AND PUSH20 0xFFFFFFFFFFFFFFFFFFFFFFFFFFFFFFFFFFFFFFFF AND PUSH20 0xFFFFFFFFFFFFFFFFFFFFFFFFFFFFFFFFFFFFFFFF AND DUP2 MSTORE POP POP SWAP1 POP PUSH1 0x0 PUSH1 0x40 MLOAD DUP1 PUSH1 0x40 ADD PUSH1 0x40 MSTORE DUP1 PUSH1 0x3 DUP12 PUSH1 0x40 MLOAD PUSH3 0x526 SWAP2 SWAP1 PUSH3 0xFA5 JUMP JUMPDEST SWAP1 DUP2 MSTORE PUSH1 0x20 ADD PUSH1 0x40 MLOAD DUP1 SWAP2 SUB SWAP1 KECCAK256 SLOAD DUP2 MSTORE PUSH1 0x20 ADD DUP10 DUP2 MSTORE POP SWAP1 POP PUSH1 0x0 PUSH1 0x2 PUSH1 0x0 SWAP1 SLOAD SWAP1 PUSH2 0x100 EXP SWAP1 DIV PUSH20 0xFFFFFFFFFFFFFFFFFFFFFFFFFFFFFFFFFFFFFFFF AND PUSH20 0xFFFFFFFFFFFFFFFFFFFFFFFFFFFFFFFFFFFFFFFF AND PUSH4 0xF5C9D69E DUP7 PUSH1 0x0 ADD MLOAD DUP8 PUSH1 0x20 ADD MLOAD DUP9 PUSH1 0x40 ADD MLOAD DUP7 PUSH1 0x40 MLOAD DUP6 PUSH4 0xFFFFFFFF AND PUSH1 0xE0 SHL DUP2 MSTORE PUSH1 0x4 ADD PUSH3 0x5B1 SWAP5 SWAP4 SWAP3 SWAP2 SWAP1 PUSH3 0x12F8 JUMP JUMPDEST PUSH1 0x20 PUSH1 0x40 MLOAD DUP1 DUP4 SUB DUP2 DUP7 GAS STATICCALL ISZERO DUP1 ISZERO PUSH3 0x5CF JUMPI RETURNDATASIZE PUSH1 0x0 DUP1 RETURNDATACOPY RETURNDATASIZE PUSH1 0x0 REVERT JUMPDEST POP POP POP POP PUSH1 0x40 MLOAD RETURNDATASIZE PUSH1 0x1F NOT PUSH1 0x1F DUP3 ADD AND DUP3 ADD DUP1 PUSH1 0x40 MSTORE POP DUP2 ADD SWAP1 PUSH3 0x5F5 SWAP2 SWAP1 PUSH3 0x1378 JUMP JUMPDEST SWAP1 POP DUP1 PUSH3 0x63A JUMPI PUSH1 0x40 MLOAD PUSH32 0x8C379A000000000000000000000000000000000000000000000000000000000 DUP2 MSTORE PUSH1 0x4 ADD PUSH3 0x631 SWAP1 PUSH3 0x13FA JUMP JUMPDEST PUSH1 0x40 MLOAD DUP1 SWAP2 SUB SWAP1 REVERT JUMPDEST PUSH1 0x0 DUP4 PUSH1 0x20 ADD MLOAD SWAP1 POP PUSH1 0x0 DUP2 PUSH20 0xFFFFFFFFFFFFFFFFFFFFFFFFFFFFFFFFFFFFFFFF AND PUSH4 0xF48BF4C3 DUP12 DUP12 DUP12 PUSH1 0x40 MLOAD DUP5 PUSH4 0xFFFFFFFF AND PUSH1 0xE0 SHL DUP2 MSTORE PUSH1 0x4 ADD PUSH3 0x684 SWAP4 SWAP3 SWAP2 SWAP1 PUSH3 0x141C JUMP JUMPDEST PUSH1 0x0 PUSH1 0x40 MLOAD DUP1 DUP4 SUB DUP2 PUSH1 0x0 DUP8 GAS CALL ISZERO DUP1 ISZERO PUSH3 0x6A4 JUMPI RETURNDATASIZE PUSH1 0x0 DUP1 RETURNDATACOPY RETURNDATASIZE PUSH1 0x0 REVERT JUMPDEST POP POP POP POP PUSH1 0x40 MLOAD RETURNDATASIZE PUSH1 0x0 DUP3 RETURNDATACOPY RETURNDATASIZE PUSH1 0x1F NOT PUSH1 0x1F DUP3 ADD AND DUP3 ADD DUP1 PUSH1 0x40 MSTORE POP DUP2 ADD SWAP1 PUSH3 0x6CF SWAP2 SWAP1 PUSH3 0x14DE JUMP JUMPDEST SWAP1 POP PUSH1 0x1 DUP1 DUP14 PUSH1 0x40 MLOAD PUSH3 0x6E4 SWAP2 SWAP1 PUSH3 0xFA5 JUMP JUMPDEST SWAP1 DUP2 MSTORE PUSH1 0x20 ADD PUSH1 0x40 MLOAD DUP1 SWAP2 SUB SWAP1 KECCAK256 PUSH1 0x0 DUP14 DUP2 MSTORE PUSH1 0x20 ADD SWAP1 DUP2 MSTORE PUSH1 0x20 ADD PUSH1 0x0 KECCAK256 PUSH1 0x0 PUSH2 0x100 EXP DUP2 SLOAD DUP2 PUSH1 0xFF MUL NOT AND SWAP1 DUP4 ISZERO ISZERO MUL OR SWAP1 SSTORE POP DUP1 SWAP6 POP POP POP POP POP POP SWAP7 SWAP6 POP POP POP POP POP POP JUMP JUMPDEST PUSH1 0x2 PUSH1 0x0 SWAP1 SLOAD SWAP1 PUSH2 0x100 EXP SWAP1 DIV PUSH20 0xFFFFFFFFFFFFFFFFFFFFFFFFFFFFFFFFFFFFFFFF AND DUP2 JUMP JUMPDEST PUSH1 0x0 DUP1 DUP3 PUSH1 0x40 MLOAD PUSH3 0x764 SWAP1 PUSH3 0x799 JUMP JUMPDEST PUSH3 0x770 SWAP2 SWAP1 PUSH3 0x1570 JUMP JUMPDEST PUSH1 0x40 MLOAD DUP1 SWAP2 SUB SWAP1 PUSH1 0x0 CREATE DUP1 ISZERO DUP1 ISZERO PUSH3 0x78D JUMPI RETURNDATASIZE PUSH1 0x0 DUP1 RETURNDATACOPY RETURNDATASIZE PUSH1 0x0 REVERT JUMPDEST POP SWAP1 POP DUP1 SWAP2 POP POP SWAP2 SWAP1 POP JUMP JUMPDEST PUSH2 0xDE8 DUP1 PUSH3 0x1595 DUP4 CODECOPY ADD SWAP1 JUMP JUMPDEST PUSH1 0x0 PUSH1 0x40 MLOAD SWAP1 POP SWAP1 JUMP JUMPDEST PUSH1 0x0 DUP1 REVERT JUMPDEST PUSH1 0x0 DUP1 REVERT JUMPDEST PUSH1 0x0 DUP1 REVERT JUMPDEST PUSH1 0x0 DUP1 REVERT JUMPDEST PUSH1 0x0 PUSH1 0x1F NOT PUSH1 0x1F DUP4 ADD AND SWAP1 POP SWAP2 SWAP1 POP JUMP JUMPDEST PUSH32 0x4E487B7100000000000000000000000000000000000000000000000000000000 PUSH1 0x0 MSTORE PUSH1 0x41 PUSH1 0x4 MSTORE PUSH1 0x24 PUSH1 0x0 REVERT JUMPDEST PUSH3 0x810 DUP3 PUSH3 0x7C5 JUMP JUMPDEST DUP2 ADD DUP2 DUP2 LT PUSH8 0xFFFFFFFFFFFFFFFF DUP3 GT OR ISZERO PUSH3 0x832 JUMPI PUSH3 0x831 PUSH3 0x7D6 JUMP JUMPDEST JUMPDEST DUP1 PUSH1 0x40 MSTORE POP POP POP JUMP JUMPDEST PUSH1 0x0 PUSH3 0x847 PUSH3 0x7A7 JUMP JUMPDEST SWAP1 POP PUSH3 0x855 DUP3 DUP3 PUSH3 0x805 JUMP JUMPDEST SWAP2 SWAP1 POP JUMP JUMPDEST PUSH1 0x0 PUSH8 0xFFFFFFFFFFFFFFFF DUP3 GT ISZERO PUSH3 0x878 JUMPI PUSH3 0x877 PUSH3 0x7D6 JUMP JUMPDEST JUMPDEST PUSH3 0x883 DUP3 PUSH3 0x7C5 JUMP JUMPDEST SWAP1 POP PUSH1 0x20 DUP2 ADD SWAP1 POP SWAP2 SWAP1 POP JUMP JUMPDEST DUP3 DUP2 DUP4 CALLDATACOPY PUSH1 0x0 DUP4 DUP4 ADD MSTORE POP POP POP JUMP JUMPDEST PUSH1 0x0 PUSH3 0x8B6 PUSH3 0x8B0 DUP5 PUSH3 0x85A JUMP JUMPDEST PUSH3 0x83B JUMP JUMPDEST SWAP1 POP DUP3 DUP2 MSTORE PUSH1 0x20 DUP2 ADD DUP5 DUP5 DUP5 ADD GT ISZERO PUSH3 0x8D5 JUMPI PUSH3 0x8D4 PUSH3 0x7C0 JUMP JUMPDEST JUMPDEST PUSH3 0x8E2 DUP5 DUP3 DUP6 PUSH3 0x890 JUMP JUMPDEST POP SWAP4 SWAP3 POP POP POP JUMP JUMPDEST PUSH1 0x0 DUP3 PUSH1 0x1F DUP4 ADD SLT PUSH3 0x902 JUMPI PUSH3 0x901 PUSH3 0x7BB JUMP JUMPDEST JUMPDEST DUP2 CALLDATALOAD PUSH3 0x914 DUP5 DUP3 PUSH1 0x20 DUP7 ADD PUSH3 0x89F JUMP JUMPDEST SWAP2 POP POP SWAP3 SWAP2 POP POP JUMP JUMPDEST PUSH1 0x0 DUP2 SWAP1 POP SWAP2 SWAP1 POP JUMP JUMPDEST PUSH3 0x932 DUP2 PUSH3 0x91D JUMP JUMPDEST DUP2 EQ PUSH3 0x93E JUMPI PUSH1 0x0 DUP1 REVERT JUMPDEST POP JUMP JUMPDEST PUSH1 0x0 DUP2 CALLDATALOAD SWAP1 POP PUSH3 0x952 DUP2 PUSH3 0x927 JUMP JUMPDEST SWAP3 SWAP2 POP POP JUMP JUMPDEST PUSH1 0x0 DUP1 PUSH1 0x40 DUP4 DUP6 SUB SLT ISZERO PUSH3 0x972 JUMPI PUSH3 0x971 PUSH3 0x7B1 JUMP JUMPDEST JUMPDEST PUSH1 0x0 DUP4 ADD CALLDATALOAD PUSH8 0xFFFFFFFFFFFFFFFF DUP2 GT ISZERO PUSH3 0x993 JUMPI PUSH3 0x992 PUSH3 0x7B6 JUMP JUMPDEST JUMPDEST PUSH3 0x9A1 DUP6 DUP3 DUP7 ADD PUSH3 0x8EA JUMP JUMPDEST SWAP3 POP POP PUSH1 0x20 PUSH3 0x9B4 DUP6 DUP3 DUP7 ADD PUSH3 0x941 JUMP JUMPDEST SWAP2 POP POP SWAP3 POP SWAP3 SWAP1 POP JUMP JUMPDEST PUSH1 0x0 PUSH20 0xFFFFFFFFFFFFFFFFFFFFFFFFFFFFFFFFFFFFFFFF DUP3 AND SWAP1 POP SWAP2 SWAP1 POP JUMP JUMPDEST PUSH1 0x0 PUSH3 0x9EB DUP3 PUSH3 0x9BE JUMP JUMPDEST SWAP1 POP SWAP2 SWAP1 POP JUMP JUMPDEST PUSH3 0x9FD DUP2 PUSH3 0x9DE JUMP JUMPDEST DUP3 MSTORE POP POP JUMP JUMPDEST PUSH1 0x0 PUSH1 0x20 DUP3 ADD SWAP1 POP PUSH3 0xA1A PUSH1 0x0 DUP4 ADD DUP5 PUSH3 0x9F2 JUMP JUMPDEST SWAP3 SWAP2 POP POP JUMP JUMPDEST PUSH1 0x0 PUSH1 0x20 DUP3 DUP5 SUB SLT ISZERO PUSH3 0xA39 JUMPI PUSH3 0xA38 PUSH3 0x7B1 JUMP JUMPDEST JUMPDEST PUSH1 0x0 DUP3 ADD CALLDATALOAD PUSH8 0xFFFFFFFFFFFFFFFF DUP2 GT ISZERO PUSH3 0xA5A JUMPI PUSH3 0xA59 PUSH3 0x7B6 JUMP JUMPDEST JUMPDEST PUSH3 0xA68 DUP5 DUP3 DUP6 ADD PUSH3 0x8EA JUMP JUMPDEST SWAP2 POP POP SWAP3 SWAP2 POP POP JUMP JUMPDEST PUSH1 0x0 DUP2 ISZERO ISZERO SWAP1 POP SWAP2 SWAP1 POP JUMP JUMPDEST PUSH3 0xA88 DUP2 PUSH3 0xA71 JUMP JUMPDEST DUP3 MSTORE POP POP JUMP JUMPDEST PUSH1 0x0 PUSH1 0x40 DUP3 ADD SWAP1 POP PUSH3 0xAA5 PUSH1 0x0 DUP4 ADD DUP6 PUSH3 0xA7D JUMP JUMPDEST PUSH3 0xAB4 PUSH1 0x20 DUP4 ADD DUP5 PUSH3 0x9F2 JUMP JUMPDEST SWAP4 SWAP3 POP POP POP JUMP JUMPDEST PUSH3 0xAC6 DUP2 PUSH3 0x91D JUMP JUMPDEST DUP3 MSTORE POP POP JUMP JUMPDEST PUSH1 0x0 PUSH1 0x20 DUP3 ADD SWAP1 POP PUSH3 0xAE3 PUSH1 0x0 DUP4 ADD DUP5 PUSH3 0xABB JUMP JUMPDEST SWAP3 SWAP2 POP POP JUMP JUMPDEST PUSH3 0xAF4 DUP2 PUSH3 0x9DE JUMP JUMPDEST DUP2 EQ PUSH3 0xB00 JUMPI PUSH1 0x0 DUP1 REVERT JUMPDEST POP JUMP JUMPDEST PUSH1 0x0 DUP2 CALLDATALOAD SWAP1 POP PUSH3 0xB14 DUP2 PUSH3 0xAE9 JUMP JUMPDEST SWAP3 SWAP2 POP POP JUMP JUMPDEST PUSH1 0x0 PUSH8 0xFFFFFFFFFFFFFFFF DUP3 GT ISZERO PUSH3 0xB38 JUMPI PUSH3 0xB37 PUSH3 0x7D6 JUMP JUMPDEST JUMPDEST PUSH3 0xB43 DUP3 PUSH3 0x7C5 JUMP JUMPDEST SWAP1 POP PUSH1 0x20 DUP2 ADD SWAP1 POP SWAP2 SWAP1 POP JUMP JUMPDEST PUSH1 0x0 PUSH3 0xB67 PUSH3 0xB61 DUP5 PUSH3 0xB1A JUMP JUMPDEST PUSH3 0x83B JUMP JUMPDEST SWAP1 POP DUP3 DUP2 MSTORE PUSH1 0x20 DUP2 ADD DUP5 DUP5 DUP5 ADD GT ISZERO PUSH3 0xB86 JUMPI PUSH3 0xB85 PUSH3 0x7C0 JUMP JUMPDEST JUMPDEST PUSH3 0xB93 DUP5 DUP3 DUP6 PUSH3 0x890 JUMP JUMPDEST POP SWAP4 SWAP3 POP POP POP JUMP JUMPDEST PUSH1 0x0 DUP3 PUSH1 0x1F DUP4 ADD SLT PUSH3 0xBB3 JUMPI PUSH3 0xBB2 PUSH3 0x7BB JUMP JUMPDEST JUMPDEST DUP2 CALLDATALOAD PUSH3 0xBC5 DUP5 DUP3 PUSH1 0x20 DUP7 ADD PUSH3 0xB50 JUMP JUMPDEST SWAP2 POP POP SWAP3 SWAP2 POP POP JUMP JUMPDEST PUSH1 0x0 DUP1 REVERT JUMPDEST PUSH1 0x0 PUSH8 0xFFFFFFFFFFFFFFFF DUP3 GT ISZERO PUSH3 0xBF1 JUMPI PUSH3 0xBF0 PUSH3 0x7D6 JUMP JUMPDEST JUMPDEST PUSH1 0x20 DUP3 MUL SWAP1 POP SWAP2 SWAP1 POP JUMP JUMPDEST PUSH1 0x0 DUP1 REVERT JUMPDEST PUSH1 0x0 PUSH3 0xC18 PUSH3 0xC12 DUP5 PUSH3 0xBD3 JUMP JUMPDEST PUSH3 0x83B JUMP JUMPDEST SWAP1 POP DUP1 PUSH1 0x20 DUP5 MUL DUP4 ADD DUP6 DUP2 GT ISZERO PUSH3 0xC35 JUMPI PUSH3 0xC34 PUSH3 0xBFC JUMP JUMPDEST JUMPDEST DUP4 JUMPDEST DUP2 DUP2 LT ISZERO PUSH3 0xC62 JUMPI DUP1 PUSH3 0xC4D DUP9 DUP3 PUSH3 0x941 JUMP JUMPDEST DUP5 MSTORE PUSH1 0x20 DUP5 ADD SWAP4 POP POP PUSH1 0x20 DUP2 ADD SWAP1 POP PUSH3 0xC37 JUMP JUMPDEST POP POP POP SWAP4 SWAP3 POP POP POP JUMP JUMPDEST PUSH1 0x0 DUP3 PUSH1 0x1F DUP4 ADD SLT PUSH3 0xC84 JUMPI PUSH3 0xC83 PUSH3 0x7BB JUMP JUMPDEST JUMPDEST PUSH1 0x2 PUSH3 0xC93 DUP5 DUP3 DUP6 PUSH3 0xC01 JUMP JUMPDEST SWAP2 POP POP SWAP3 SWAP2 POP POP JUMP JUMPDEST PUSH1 0x0 PUSH8 0xFFFFFFFFFFFFFFFF DUP3 GT ISZERO PUSH3 0xCBA JUMPI PUSH3 0xCB9 PUSH3 0x7D6 JUMP JUMPDEST JUMPDEST PUSH1 0x20 DUP3 MUL SWAP1 POP SWAP2 SWAP1 POP JUMP JUMPDEST PUSH1 0x0 PUSH3 0xCDC PUSH3 0xCD6 DUP5 PUSH3 0xC9C JUMP JUMPDEST PUSH3 0x83B JUMP JUMPDEST SWAP1 POP DUP1 PUSH1 0x40 DUP5 MUL DUP4 ADD DUP6 DUP2 GT ISZERO PUSH3 0xCF9 JUMPI PUSH3 0xCF8 PUSH3 0xBFC JUMP JUMPDEST JUMPDEST DUP4 JUMPDEST DUP2 DUP2 LT ISZERO PUSH3 0xD26 JUMPI DUP1 PUSH3 0xD11 DUP9 DUP3 PUSH3 0xC6C JUMP JUMPDEST DUP5 MSTORE PUSH1 0x20 DUP5 ADD SWAP4 POP POP PUSH1 0x40 DUP2 ADD SWAP1 POP PUSH3 0xCFB JUMP JUMPDEST POP POP POP SWAP4 SWAP3 POP POP POP JUMP JUMPDEST PUSH1 0x0 DUP3 PUSH1 0x1F DUP4 ADD SLT PUSH3 0xD48 JUMPI PUSH3 0xD47 PUSH3 0x7BB JUMP JUMPDEST JUMPDEST PUSH1 0x2 PUSH3 0xD57 DUP5 DUP3 DUP6 PUSH3 0xCC5 JUMP JUMPDEST SWAP2 POP POP SWAP3 SWAP2 POP POP JUMP JUMPDEST PUSH1 0x0 PUSH2 0x100 DUP3 DUP5 SUB SLT ISZERO PUSH3 0xD7A JUMPI PUSH3 0xD79 PUSH3 0xBCE JUMP JUMPDEST JUMPDEST PUSH3 0xD86 PUSH1 0x60 PUSH3 0x83B JUMP JUMPDEST SWAP1 POP PUSH1 0x0 PUSH3 0xD98 DUP5 DUP3 DUP6 ADD PUSH3 0xC6C JUMP JUMPDEST PUSH1 0x0 DUP4 ADD MSTORE POP PUSH1 0x40 PUSH3 0xDAE DUP5 DUP3 DUP6 ADD PUSH3 0xD30 JUMP JUMPDEST PUSH1 0x20 DUP4 ADD MSTORE POP PUSH1 0xC0 PUSH3 0xDC4 DUP5 DUP3 DUP6 ADD PUSH3 0xC6C JUMP JUMPDEST PUSH1 0x40 DUP4 ADD MSTORE POP SWAP3 SWAP2 POP POP JUMP JUMPDEST PUSH1 0x0 DUP1 PUSH1 0x0 DUP1 PUSH1 0x0 DUP1 PUSH2 0x1A0 DUP8 DUP10 SUB SLT ISZERO PUSH3 0xDF1 JUMPI PUSH3 0xDF0 PUSH3 0x7B1 JUMP JUMPDEST JUMPDEST PUSH1 0x0 DUP8 ADD CALLDATALOAD PUSH8 0xFFFFFFFFFFFFFFFF DUP2 GT ISZERO PUSH3 0xE12 JUMPI PUSH3 0xE11 PUSH3 0x7B6 JUMP JUMPDEST JUMPDEST PUSH3 0xE20 DUP10 DUP3 DUP11 ADD PUSH3 0x8EA JUMP JUMPDEST SWAP7 POP POP PUSH1 0x20 PUSH3 0xE33 DUP10 DUP3 DUP11 ADD PUSH3 0x941 JUMP JUMPDEST SWAP6 POP POP PUSH1 0x40 PUSH3 0xE46 DUP10 DUP3 DUP11 ADD PUSH3 0xB03 JUMP JUMPDEST SWAP5 POP POP PUSH1 0x60 PUSH3 0xE59 DUP10 DUP3 DUP11 ADD PUSH3 0x941 JUMP JUMPDEST SWAP4 POP POP PUSH1 0x80 DUP8 ADD CALLDATALOAD PUSH8 0xFFFFFFFFFFFFFFFF DUP2 GT ISZERO PUSH3 0xE7D JUMPI PUSH3 0xE7C PUSH3 0x7B6 JUMP JUMPDEST JUMPDEST PUSH3 0xE8B DUP10 DUP3 DUP11 ADD PUSH3 0xB9B JUMP JUMPDEST SWAP3 POP POP PUSH1 0xA0 PUSH3 0xE9E DUP10 DUP3 DUP11 ADD PUSH3 0xD60 JUMP JUMPDEST SWAP2 POP POP SWAP3 SWAP6 POP SWAP3 SWAP6 POP SWAP3 SWAP6 JUMP JUMPDEST PUSH1 0x0 DUP2 MLOAD SWAP1 POP SWAP2 SWAP1 POP JUMP JUMPDEST PUSH1 0x0 DUP3 DUP3 MSTORE PUSH1 0x20 DUP3 ADD SWAP1 POP SWAP3 SWAP2 POP POP JUMP JUMPDEST PUSH1 0x0 JUMPDEST DUP4 DUP2 LT ISZERO PUSH3 0xEE7 JUMPI DUP1 DUP3 ADD MLOAD DUP2 DUP5 ADD MSTORE PUSH1 0x20 DUP2 ADD SWAP1 POP PUSH3 0xECA JUMP JUMPDEST PUSH1 0x0 DUP5 DUP5 ADD MSTORE POP POP POP POP JUMP JUMPDEST PUSH1 0x0 PUSH3 0xF00 DUP3 PUSH3 0xEAB JUMP JUMPDEST PUSH3 0xF0C DUP2 DUP6 PUSH3 0xEB6 JUMP JUMPDEST SWAP4 POP PUSH3 0xF1E DUP2 DUP6 PUSH1 0x20 DUP7 ADD PUSH3 0xEC7 JUMP JUMPDEST PUSH3 0xF29 DUP2 PUSH3 0x7C5 JUMP JUMPDEST DUP5 ADD SWAP2 POP POP SWAP3 SWAP2 POP POP JUMP JUMPDEST PUSH1 0x0 PUSH1 0x20 DUP3 ADD SWAP1 POP DUP2 DUP2 SUB PUSH1 0x0 DUP4 ADD MSTORE PUSH3 0xF50 DUP2 DUP5 PUSH3 0xEF3 JUMP JUMPDEST SWAP1 POP SWAP3 SWAP2 POP POP JUMP JUMPDEST PUSH1 0x0 DUP2 MLOAD SWAP1 POP SWAP2 SWAP1 POP JUMP JUMPDEST PUSH1 0x0 DUP2 SWAP1 POP SWAP3 SWAP2 POP POP JUMP JUMPDEST PUSH1 0x0 PUSH3 0xF7B DUP3 PUSH3 0xF58 JUMP JUMPDEST PUSH3 0xF87 DUP2 DUP6 PUSH3 0xF63 JUMP JUMPDEST SWAP4 POP PUSH3 0xF99 DUP2 DUP6 PUSH1 0x20 DUP7 ADD PUSH3 0xEC7 JUMP JUMPDEST DUP1 DUP5 ADD SWAP2 POP POP SWAP3 SWAP2 POP POP JUMP JUMPDEST PUSH1 0x0 PUSH3 0xFB3 DUP3 DUP5 PUSH3 0xF6E JUMP JUMPDEST SWAP2 POP DUP2 SWAP1 POP SWAP3 SWAP2 POP POP JUMP JUMPDEST PUSH1 0x0 DUP3 DUP3 MSTORE PUSH1 0x20 DUP3 ADD SWAP1 POP SWAP3 SWAP2 POP POP JUMP JUMPDEST PUSH32 0x557365726E616D6520616C726561647920757365640000000000000000000000 PUSH1 0x0 DUP3 ADD MSTORE POP JUMP JUMPDEST PUSH1 0x0 PUSH3 0x1007 PUSH1 0x15 DUP4 PUSH3 0xFBE JUMP JUMPDEST SWAP2 POP PUSH3 0x1014 DUP3 PUSH3 0xFCF JUMP JUMPDEST PUSH1 0x20 DUP3 ADD SWAP1 POP SWAP2 SWAP1 POP JUMP JUMPDEST PUSH1 0x0 PUSH1 0x20 DUP3 ADD SWAP1 POP DUP2 DUP2 SUB PUSH1 0x0 DUP4 ADD MSTORE PUSH3 0x103A DUP2 PUSH3 0xFF8 JUMP JUMPDEST SWAP1 POP SWAP2 SWAP1 POP JUMP JUMPDEST PUSH32 0x557365726E616D65206973206E6F742072656769737465726564000000000000 PUSH1 0x0 DUP3 ADD MSTORE POP JUMP JUMPDEST PUSH1 0x0 PUSH3 0x1079 PUSH1 0x1A DUP4 PUSH3 0xFBE JUMP JUMPDEST SWAP2 POP PUSH3 0x1086 DUP3 PUSH3 0x1041 JUMP JUMPDEST PUSH1 0x20 DUP3 ADD SWAP1 POP SWAP2 SWAP1 POP JUMP JUMPDEST PUSH1 0x0 PUSH1 0x20 DUP3 ADD SWAP1 POP DUP2 DUP2 SUB PUSH1 0x0 DUP4 ADD MSTORE PUSH3 0x10AC DUP2 PUSH3 0x106A JUMP JUMPDEST SWAP1 POP SWAP2 SWAP1 POP JUMP JUMPDEST PUSH32 0x496E76616C6964206E6F6E636500000000000000000000000000000000000000 PUSH1 0x0 DUP3 ADD MSTORE POP JUMP JUMPDEST PUSH1 0x0 PUSH3 0x10EB PUSH1 0xD DUP4 PUSH3 0xFBE JUMP JUMPDEST SWAP2 POP PUSH3 0x10F8 DUP3 PUSH3 0x10B3 JUMP JUMPDEST PUSH1 0x20 DUP3 ADD SWAP1 POP SWAP2 SWAP1 POP JUMP JUMPDEST PUSH1 0x0 PUSH1 0x20 DUP3 ADD SWAP1 POP DUP2 DUP2 SUB PUSH1 0x0 DUP4 ADD MSTORE PUSH3 0x111E DUP2 PUSH3 0x10DC JUMP JUMPDEST SWAP1 POP SWAP2 SWAP1 POP JUMP JUMPDEST PUSH1 0x0 PUSH1 0x2 SWAP1 POP SWAP2 SWAP1 POP JUMP JUMPDEST PUSH1 0x0 DUP2 SWAP1 POP SWAP3 SWAP2 POP POP JUMP JUMPDEST PUSH1 0x0 DUP2 SWAP1 POP SWAP2 SWAP1 POP JUMP JUMPDEST PUSH3 0x1150 DUP2 PUSH3 0x91D JUMP JUMPDEST DUP3 MSTORE POP POP JUMP JUMPDEST PUSH1 0x0 PUSH3 0x1164 DUP4 DUP4 PUSH3 0x1145 JUMP JUMPDEST PUSH1 0x20 DUP4 ADD SWAP1 POP SWAP3 SWAP2 POP POP JUMP JUMPDEST PUSH1 0x0 PUSH1 0x20 DUP3 ADD SWAP1 POP SWAP2 SWAP1 POP JUMP JUMPDEST PUSH3 0x1188 DUP2 PUSH3 0x1125 JUMP JUMPDEST PUSH3 0x1194 DUP2 DUP5 PUSH3 0x1130 JUMP JUMPDEST SWAP3 POP PUSH3 0x11A1 DUP3 PUSH3 0x113B JUMP JUMPDEST DUP1 PUSH1 0x0 JUMPDEST DUP4 DUP2 LT ISZERO PUSH3 0x11D8 JUMPI DUP2 MLOAD PUSH3 0x11BC DUP8 DUP3 PUSH3 0x1156 JUMP JUMPDEST SWAP7 POP PUSH3 0x11C9 DUP4 PUSH3 0x1170 JUMP JUMPDEST SWAP3 POP POP PUSH1 0x1 DUP2 ADD SWAP1 POP PUSH3 0x11A5 JUMP JUMPDEST POP POP POP POP POP POP JUMP JUMPDEST PUSH1 0x0 PUSH1 0x2 SWAP1 POP SWAP2 SWAP1 POP JUMP JUMPDEST PUSH1 0x0 DUP2 SWAP1 POP SWAP3 SWAP2 POP POP JUMP JUMPDEST PUSH1 0x0 DUP2 SWAP1 POP SWAP2 SWAP1 POP JUMP JUMPDEST PUSH1 0x0 DUP2 SWAP1 POP SWAP3 SWAP2 POP POP JUMP JUMPDEST PUSH3 0x1216 DUP2 PUSH3 0x1125 JUMP JUMPDEST PUSH3 0x1222 DUP2 DUP5 PUSH3 0x1200 JUMP JUMPDEST SWAP3 POP PUSH3 0x122F DUP3 PUSH3 0x113B JUMP JUMPDEST DUP1 PUSH1 0x0 JUMPDEST DUP4 DUP2 LT ISZERO PUSH3 0x1266 JUMPI DUP2 MLOAD PUSH3 0x124A DUP8 DUP3 PUSH3 0x1156 JUMP JUMPDEST SWAP7 POP PUSH3 0x1257 DUP4 PUSH3 0x1170 JUMP JUMPDEST SWAP3 POP POP PUSH1 0x1 DUP2 ADD SWAP1 POP PUSH3 0x1233 JUMP JUMPDEST POP POP POP POP POP POP JUMP JUMPDEST PUSH1 0x0 PUSH3 0x127C DUP4 DUP4 PUSH3 0x120B JUMP JUMPDEST PUSH1 0x40 DUP4 ADD SWAP1 POP SWAP3 SWAP2 POP POP JUMP JUMPDEST PUSH1 0x0 PUSH1 0x20 DUP3 ADD SWAP1 POP SWAP2 SWAP1 POP JUMP JUMPDEST PUSH3 0x12A0 DUP2 PUSH3 0x11E0 JUMP JUMPDEST PUSH3 0x12AC DUP2 DUP5 PUSH3 0x11EB JUMP JUMPDEST SWAP3 POP PUSH3 0x12B9 DUP3 PUSH3 0x11F6 JUMP JUMPDEST DUP1 PUSH1 0x0 JUMPDEST DUP4 DUP2 LT ISZERO PUSH3 0x12F0 JUMPI DUP2 MLOAD PUSH3 0x12D4 DUP8 DUP3 PUSH3 0x126E JUMP JUMPDEST SWAP7 POP PUSH3 0x12E1 DUP4 PUSH3 0x1288 JUMP JUMPDEST SWAP3 POP POP PUSH1 0x1 DUP2 ADD SWAP1 POP PUSH3 0x12BD JUMP JUMPDEST POP POP POP POP POP POP JUMP JUMPDEST PUSH1 0x0 PUSH2 0x140 DUP3 ADD SWAP1 POP PUSH3 0x1310 PUSH1 0x0 DUP4 ADD DUP8 PUSH3 0x117D JUMP JUMPDEST PUSH3 0x131F PUSH1 0x40 DUP4 ADD DUP7 PUSH3 0x1295 JUMP JUMPDEST PUSH3 0x132E PUSH1 0xC0 DUP4 ADD DUP6 PUSH3 0x117D JUMP JUMPDEST PUSH3 0x133E PUSH2 0x100 DUP4 ADD DUP5 PUSH3 0x117D JUMP JUMPDEST SWAP6 SWAP5 POP POP POP POP POP JUMP JUMPDEST PUSH3 0x1352 DUP2 PUSH3 0xA71 JUMP JUMPDEST DUP2 EQ PUSH3 0x135E JUMPI PUSH1 0x0 DUP1 REVERT JUMPDEST POP JUMP JUMPDEST PUSH1 0x0 DUP2 MLOAD SWAP1 POP PUSH3 0x1372 DUP2 PUSH3 0x1347 JUMP JUMPDEST SWAP3 SWAP2 POP POP JUMP JUMPDEST PUSH1 0x0 PUSH1 0x20 DUP3 DUP5 SUB SLT ISZERO PUSH3 0x1391 JUMPI PUSH3 0x1390 PUSH3 0x7B1 JUMP JUMPDEST JUMPDEST PUSH1 0x0 PUSH3 0x13A1 DUP5 DUP3 DUP6 ADD PUSH3 0x1361 JUMP JUMPDEST SWAP2 POP POP SWAP3 SWAP2 POP POP JUMP JUMPDEST PUSH32 0x7A6B534E41524B20766572696669636174696F6E206661696C65640000000000 PUSH1 0x0 DUP3 ADD MSTORE POP JUMP JUMPDEST PUSH1 0x0 PUSH3 0x13E2 PUSH1 0x1B DUP4 PUSH3 0xFBE JUMP JUMPDEST SWAP2 POP PUSH3 0x13EF DUP3 PUSH3 0x13AA JUMP JUMPDEST PUSH1 0x20 DUP3 ADD SWAP1 POP SWAP2 SWAP1 POP JUMP JUMPDEST PUSH1 0x0 PUSH1 0x20 DUP3 ADD SWAP1 POP DUP2 DUP2 SUB PUSH1 0x0 DUP4 ADD MSTORE PUSH3 0x1415 DUP2 PUSH3 0x13D3 JUMP JUMPDEST SWAP1 POP SWAP2 SWAP1 POP JUMP JUMPDEST PUSH1 0x0 PUSH1 0x60 DUP3 ADD SWAP1 POP PUSH3 0x1433 PUSH1 0x0 DUP4 ADD DUP7 PUSH3 0x9F2 JUMP JUMPDEST PUSH3 0x1442 PUSH1 0x20 DUP4 ADD DUP6 PUSH3 0xABB JUMP JUMPDEST DUP2 DUP2 SUB PUSH1 0x40 DUP4 ADD MSTORE PUSH3 0x1456 DUP2 DUP5 PUSH3 0xEF3 JUMP JUMPDEST SWAP1 POP SWAP5 SWAP4 POP POP POP POP JUMP JUMPDEST PUSH1 0x0 PUSH3 0x1477 PUSH3 0x1471 DUP5 PUSH3 0xB1A JUMP JUMPDEST PUSH3 0x83B JUMP JUMPDEST SWAP1 POP DUP3 DUP2 MSTORE PUSH1 0x20 DUP2 ADD DUP5 DUP5 DUP5 ADD GT ISZERO PUSH3 0x1496 JUMPI PUSH3 0x1495 PUSH3 0x7C0 JUMP JUMPDEST JUMPDEST PUSH3 0x14A3 DUP5 DUP3 DUP6 PUSH3 0xEC7 JUMP JUMPDEST POP SWAP4 SWAP3 POP POP POP JUMP JUMPDEST PUSH1 0x0 DUP3 PUSH1 0x1F DUP4 ADD SLT PUSH3 0x14C3 JUMPI PUSH3 0x14C2 PUSH3 0x7BB JUMP JUMPDEST JUMPDEST DUP2 MLOAD PUSH3 0x14D5 DUP5 DUP3 PUSH1 0x20 DUP7 ADD PUSH3 0x1460 JUMP JUMPDEST SWAP2 POP POP SWAP3 SWAP2 POP POP JUMP JUMPDEST PUSH1 0x0 PUSH1 0x20 DUP3 DUP5 SUB SLT ISZERO PUSH3 0x14F7 JUMPI PUSH3 0x14F6 PUSH3 0x7B1 JUMP JUMPDEST JUMPDEST PUSH1 0x0 DUP3 ADD MLOAD PUSH8 0xFFFFFFFFFFFFFFFF DUP2 GT ISZERO PUSH3 0x1518 JUMPI PUSH3 0x1517 PUSH3 0x7B6 JUMP JUMPDEST JUMPDEST PUSH3 0x1526 DUP5 DUP3 DUP6 ADD PUSH3 0x14AB JUMP JUMPDEST SWAP2 POP POP SWAP3 SWAP2 POP POP JUMP JUMPDEST PUSH1 0x0 PUSH3 0x153C DUP3 PUSH3 0xF58 JUMP JUMPDEST PUSH3 0x1548 DUP2 DUP6 PUSH3 0xFBE JUMP JUMPDEST SWAP4 POP PUSH3 0x155A DUP2 DUP6 PUSH1 0x20 DUP7 ADD PUSH3 0xEC7 JUMP JUMPDEST PUSH3 0x1565 DUP2 PUSH3 0x7C5 JUMP JUMPDEST DUP5 ADD SWAP2 POP POP SWAP3 SWAP2 POP POP JUMP JUMPDEST PUSH1 0x0 PUSH1 0x20 DUP3 ADD SWAP1 POP DUP2 DUP2 SUB PUSH1 0x0 DUP4 ADD MSTORE PUSH3 0x158C DUP2 DUP5 PUSH3 0x152F JUMP JUMPDEST SWAP1 POP SWAP3 SWAP2 POP POP JUMP INVALID PUSH1 0x80 PUSH1 0x40 MSTORE CALLVALUE DUP1 ISZERO PUSH3 0x11 JUMPI PUSH1 0x0 DUP1 REVERT JUMPDEST POP PUSH1 0x40 MLOAD PUSH3 0xDE8 CODESIZE SUB DUP1 PUSH3 0xDE8 DUP4 CODECOPY DUP2 DUP2 ADD PUSH1 0x40 MSTORE DUP2 ADD SWAP1 PUSH3 0x37 SWAP2 SWAP1 PUSH3 0x223 JUMP JUMPDEST CALLER PUSH1 0x0 DUP1 PUSH2 0x100 EXP DUP2 SLOAD DUP2 PUSH20 0xFFFFFFFFFFFFFFFFFFFFFFFFFFFFFFFFFFFFFFFF MUL NOT AND SWAP1 DUP4 PUSH20 0xFFFFFFFFFFFFFFFFFFFFFFFFFFFFFFFFFFFFFFFF AND MUL OR SWAP1 SSTORE POP DUP1 PUSH1 0x1 SWAP1 DUP2 PUSH3 0x88 SWAP2 SWAP1 PUSH3 0x4BF JUMP JUMPDEST POP POP PUSH3 0x5A6 JUMP JUMPDEST PUSH1 0x0 PUSH1 0x40 MLOAD SWAP1 POP SWAP1 JUMP JUMPDEST PUSH1 0x0 DUP1 REVERT JUMPDEST PUSH1 0x0 DUP1 REVERT JUMPDEST PUSH1 0x0 DUP1 REVERT JUMPDEST PUSH1 0x0 DUP1 REVERT JUMPDEST PUSH1 0x0 PUSH1 0x1F NOT PUSH1 0x1F DUP4 ADD AND SWAP1 POP SWAP2 SWAP1 POP JUMP JUMPDEST PUSH32 0x4E487B7100000000000000000000000000000000000000000000000000000000 PUSH1 0x0 MSTORE PUSH1 0x41 PUSH1 0x4 MSTORE PUSH1 0x24 PUSH1 0x0 REVERT JUMPDEST PUSH3 0xF9 DUP3 PUSH3 0xAE JUMP JUMPDEST DUP2 ADD DUP2 DUP2 LT PUSH8 0xFFFFFFFFFFFFFFFF DUP3 GT OR ISZERO PUSH3 0x11B JUMPI PUSH3 0x11A PUSH3 0xBF JUMP JUMPDEST JUMPDEST DUP1 PUSH1 0x40 MSTORE POP POP POP JUMP JUMPDEST PUSH1 0x0 PUSH3 0x130 PUSH3 0x90 JUMP JUMPDEST SWAP1 POP PUSH3 0x13E DUP3 DUP3 PUSH3 0xEE JUMP JUMPDEST SWAP2 SWAP1 POP JUMP JUMPDEST PUSH1 0x0 PUSH8 0xFFFFFFFFFFFFFFFF DUP3 GT ISZERO PUSH3 0x161 JUMPI PUSH3 0x160 PUSH3 0xBF JUMP JUMPDEST JUMPDEST PUSH3 0x16C DUP3 PUSH3 0xAE JUMP JUMPDEST SWAP1 POP PUSH1 0x20 DUP2 ADD SWAP1 POP SWAP2 SWAP1 POP JUMP JUMPDEST PUSH1 0x0 JUMPDEST DUP4 DUP2 LT ISZERO PUSH3 0x199 JUMPI DUP1 DUP3 ADD MLOAD DUP2 DUP5 ADD MSTORE PUSH1 0x20 DUP2 ADD SWAP1 POP PUSH3 0x17C JUMP JUMPDEST PUSH1 0x0 DUP5 DUP5 ADD MSTORE POP POP POP POP JUMP JUMPDEST PUSH1 0x0 PUSH3 0x1BC PUSH3 0x1B6 DUP5 PUSH3 0x143 JUMP JUMPDEST PUSH3 0x124 JUMP JUMPDEST SWAP1 POP DUP3 DUP2 MSTORE PUSH1 0x20 DUP2 ADD DUP5 DUP5 DUP5 ADD GT ISZERO PUSH3 0x1DB JUMPI PUSH3 0x1DA PUSH3 0xA9 JUMP JUMPDEST JUMPDEST PUSH3 0x1E8 DUP5 DUP3 DUP6 PUSH3 0x179 JUMP JUMPDEST POP SWAP4 SWAP3 POP POP POP JUMP JUMPDEST PUSH1 0x0 DUP3 PUSH1 0x1F DUP4 ADD SLT PUSH3 0x208 JUMPI PUSH3 0x207 PUSH3 0xA4 JUMP JUMPDEST JUMPDEST DUP2 MLOAD PUSH3 0x21A DUP5 DUP3 PUSH1 0x20 DUP7 ADD PUSH3 0x1A5 JUMP JUMPDEST SWAP2 POP POP SWAP3 SWAP2 POP POP JUMP JUMPDEST PUSH1 0x0 PUSH1 0x20 DUP3 DUP5 SUB SLT ISZERO PUSH3 0x23C JUMPI PUSH3 0x23B PUSH3 0x9A JUMP JUMPDEST JUMPDEST PUSH1 0x0 DUP3 ADD MLOAD PUSH8 0xFFFFFFFFFFFFFFFF DUP2 GT ISZERO PUSH3 0x25D JUMPI PUSH3 0x25C PUSH3 0x9F JUMP JUMPDEST JUMPDEST PUSH3 0x26B DUP5 DUP3 DUP6 ADD PUSH3 0x1F0 JUMP JUMPDEST SWAP2 POP POP SWAP3 SWAP2 POP POP JUMP JUMPDEST PUSH1 0x0 DUP2 MLOAD SWAP1 POP SWAP2 SWAP1 POP JUMP JUMPDEST PUSH32 0x4E487B7100000000000000000000000000000000000000000000000000000000 PUSH1 0x0 MSTORE PUSH1 0x22 PUSH1 0x4 MSTORE PUSH1 0x24 PUSH1 0x0 REVERT JUMPDEST PUSH1 0x0 PUSH1 0x2 DUP3 DIV SWAP1 POP PUSH1 0x1 DUP3 AND DUP1 PUSH3 0x2C7 JUMPI PUSH1 0x7F DUP3 AND SWAP2 POP JUMPDEST PUSH1 0x20 DUP3 LT DUP2 SUB PUSH3 0x2DD JUMPI PUSH3 0x2DC PUSH3 0x27F JUMP JUMPDEST JUMPDEST POP SWAP2 SWAP1 POP JUMP JUMPDEST PUSH1 0x0 DUP2 SWAP1 POP DUP2 PUSH1 0x0 MSTORE PUSH1 0x20 PUSH1 0x0 KECCAK256 SWAP1 POP SWAP2 SWAP1 POP JUMP JUMPDEST PUSH1 0x0 PUSH1 0x20 PUSH1 0x1F DUP4 ADD DIV SWAP1 POP SWAP2 SWAP1 POP JUMP JUMPDEST PUSH1 0x0 DUP3 DUP3 SHL SWAP1 POP SWAP3 SWAP2 POP POP JUMP JUMPDEST PUSH1 0x0 PUSH1 0x8 DUP4 MUL PUSH3 0x347 PUSH32 0xFFFFFFFFFFFFFFFFFFFFFFFFFFFFFFFFFFFFFFFFFFFFFFFFFFFFFFFFFFFFFFFF DUP3 PUSH3 0x308 JUMP JUMPDEST PUSH3 0x353 DUP7 DUP4 PUSH3 0x308 JUMP JUMPDEST SWAP6 POP DUP1 NOT DUP5 AND SWAP4 POP DUP1 DUP7 AND DUP5 OR SWAP3 POP POP POP SWAP4 SWAP3 POP POP POP JUMP JUMPDEST PUSH1 0x0 DUP2 SWAP1 POP SWAP2 SWAP1 POP JUMP JUMPDEST PUSH1 0x0 DUP2 SWAP1 POP SWAP2 SWAP1 POP JUMP JUMPDEST PUSH1 0x0 PUSH3 0x3A0 PUSH3 0x39A PUSH3 0x394 DUP5 PUSH3 0x36B JUMP JUMPDEST PUSH3 0x375 JUMP JUMPDEST PUSH3 0x36B JUMP JUMPDEST SWAP1 POP SWAP2 SWAP1 POP JUMP JUMPDEST PUSH1 0x0 DUP2 SWAP1 POP SWAP2 SWAP1 POP JUMP JUMPDEST PUSH3 0x3BC DUP4 PUSH3 0x37F JUMP JUMPDEST PUSH3 0x3D4 PUSH3 0x3CB DUP3 PUSH3 0x3A7 JUMP JUMPDEST DUP5 DUP5 SLOAD PUSH3 0x315 JUMP JUMPDEST DUP3 SSTORE POP POP POP POP JUMP JUMPDEST PUSH1 0x0 SWAP1 JUMP JUMPDEST PUSH3 0x3EB PUSH3 0x3DC JUMP JUMPDEST PUSH3 0x3F8 DUP2 DUP5 DUP5 PUSH3 0x3B1 JUMP JUMPDEST POP POP POP JUMP JUMPDEST JUMPDEST DUP2 DUP2 LT ISZERO PUSH3 0x420 JUMPI PUSH3 0x414 PUSH1 0x0 DUP3 PUSH3 0x3E1 JUMP JUMPDEST PUSH1 0x1 DUP2 ADD SWAP1 POP PUSH3 0x3FE JUMP JUMPDEST POP POP JUMP JUMPDEST PUSH1 0x1F DUP3 GT ISZERO PUSH3 0x46F JUMPI PUSH3 0x439 DUP2 PUSH3 0x2E3 JUMP JUMPDEST PUSH3 0x444 DUP5 PUSH3 0x2F8 JUMP JUMPDEST DUP2 ADD PUSH1 0x20 DUP6 LT ISZERO PUSH3 0x454 JUMPI DUP2 SWAP1 POP JUMPDEST PUSH3 0x46C PUSH3 0x463 DUP6 PUSH3 0x2F8 JUMP JUMPDEST DUP4 ADD DUP3 PUSH3 0x3FD JUMP JUMPDEST POP POP JUMPDEST POP POP POP JUMP JUMPDEST PUSH1 0x0 DUP3 DUP3 SHR SWAP1 POP SWAP3 SWAP2 POP POP JUMP JUMPDEST PUSH1 0x0 PUSH3 0x494 PUSH1 0x0 NOT DUP5 PUSH1 0x8 MUL PUSH3 0x474 JUMP JUMPDEST NOT DUP1 DUP4 AND SWAP2 POP POP SWAP3 SWAP2 POP POP JUMP JUMPDEST PUSH1 0x0 PUSH3 0x4AF DUP4 DUP4 PUSH3 0x481 JUMP JUMPDEST SWAP2 POP DUP3 PUSH1 0x2 MUL DUP3 OR SWAP1 POP SWAP3 SWAP2 POP POP JUMP JUMPDEST PUSH3 0x4CA DUP3 PUSH3 0x274 JUMP JUMPDEST PUSH8 0xFFFFFFFFFFFFFFFF DUP2 GT ISZERO PUSH3 0x4E6 JUMPI PUSH3 0x4E5 PUSH3 0xBF JUMP JUMPDEST JUMPDEST PUSH3 0x4F2 DUP3 SLOAD PUSH3 0x2AE JUMP JUMPDEST PUSH3 0x4FF DUP3 DUP3 DUP6 PUSH3 0x424 JUMP JUMPDEST PUSH1 0x0 PUSH1 0x20 SWAP1 POP PUSH1 0x1F DUP4 GT PUSH1 0x1 DUP2 EQ PUSH3 0x537 JUMPI PUSH1 0x0 DUP5 ISZERO PUSH3 0x522 JUMPI DUP3 DUP8 ADD MLOAD SWAP1 POP JUMPDEST PUSH3 0x52E DUP6 DUP3 PUSH3 0x4A1 JUMP JUMPDEST DUP7 SSTORE POP PUSH3 0x59E JUMP JUMPDEST PUSH1 0x1F NOT DUP5 AND PUSH3 0x547 DUP7 PUSH3 0x2E3 JUMP JUMPDEST PUSH1 0x0 JUMPDEST DUP3 DUP2 LT ISZERO PUSH3 0x571 JUMPI DUP5 DUP10 ADD MLOAD DUP3 SSTORE PUSH1 0x1 DUP3 ADD SWAP2 POP PUSH1 0x20 DUP6 ADD SWAP5 POP PUSH1 0x20 DUP2 ADD SWAP1 POP PUSH3 0x54A JUMP JUMPDEST DUP7 DUP4 LT ISZERO PUSH3 0x591 JUMPI DUP5 DUP10 ADD MLOAD PUSH3 0x58D PUSH1 0x1F DUP10 AND DUP3 PUSH3 0x481 JUMP JUMPDEST DUP4 SSTORE POP JUMPDEST PUSH1 0x1 PUSH1 0x2 DUP9 MUL ADD DUP9 SSTORE POP POP POP JUMPDEST POP POP POP POP POP POP JUMP JUMPDEST PUSH2 0x832 DUP1 PUSH3 0x5B6 PUSH1 0x0 CODECOPY PUSH1 0x0 RETURN INVALID PUSH1 0x80 PUSH1 0x40 MSTORE PUSH1 0x4 CALLDATASIZE LT PUSH2 0x38 JUMPI PUSH1 0x0 CALLDATALOAD PUSH1 0xE0 SHR DUP1 PUSH4 0x61FAC54D EQ PUSH2 0x41 JUMPI DUP1 PUSH4 0x966DAE0E EQ PUSH2 0x6C JUMPI DUP1 PUSH4 0xF48BF4C3 EQ PUSH2 0x97 JUMPI PUSH2 0x3F JUMP JUMPDEST CALLDATASIZE PUSH2 0x3F JUMPI STOP JUMPDEST STOP JUMPDEST CALLVALUE DUP1 ISZERO PUSH2 0x4D JUMPI PUSH1 0x0 DUP1 REVERT JUMPDEST POP PUSH2 0x56 PUSH2 0xD4 JUMP JUMPDEST PUSH1 0x40 MLOAD PUSH2 0x63 SWAP2 SWAP1 PUSH2 0x362 JUMP JUMPDEST PUSH1 0x40 MLOAD DUP1 SWAP2 SUB SWAP1 RETURN JUMPDEST CALLVALUE DUP1 ISZERO PUSH2 0x78 JUMPI PUSH1 0x0 DUP1 REVERT JUMPDEST POP PUSH2 0x81 PUSH2 0x162 JUMP JUMPDEST PUSH1 0x40 MLOAD PUSH2 0x8E SWAP2 SWAP1 PUSH2 0x3C5 JUMP JUMPDEST PUSH1 0x40 MLOAD DUP1 SWAP2 SUB SWAP1 RETURN JUMPDEST CALLVALUE DUP1 ISZERO PUSH2 0xA3 JUMPI PUSH1 0x0 DUP1 REVERT JUMPDEST POP PUSH2 0xBE PUSH1 0x4 DUP1 CALLDATASIZE SUB DUP2 ADD SWAP1 PUSH2 0xB9 SWAP2 SWAP1 PUSH2 0x58B JUMP JUMPDEST PUSH2 0x186 JUMP JUMPDEST PUSH1 0x40 MLOAD PUSH2 0xCB SWAP2 SWAP1 PUSH2 0x64F JUMP JUMPDEST PUSH1 0x40 MLOAD DUP1 SWAP2 SUB SWAP1 RETURN JUMPDEST PUSH1 0x1 DUP1 SLOAD PUSH2 0xE1 SWAP1 PUSH2 0x6A0 JUMP JUMPDEST DUP1 PUSH1 0x1F ADD PUSH1 0x20 DUP1 SWAP2 DIV MUL PUSH1 0x20 ADD PUSH1 0x40 MLOAD SWAP1 DUP2 ADD PUSH1 0x40 MSTORE DUP1 SWAP3 SWAP2 SWAP1 DUP2 DUP2 MSTORE PUSH1 0x20 ADD DUP3 DUP1 SLOAD PUSH2 0x10D SWAP1 PUSH2 0x6A0 JUMP JUMPDEST DUP1 ISZERO PUSH2 0x15A JUMPI DUP1 PUSH1 0x1F LT PUSH2 0x12F JUMPI PUSH2 0x100 DUP1 DUP4 SLOAD DIV MUL DUP4 MSTORE SWAP2 PUSH1 0x20 ADD SWAP2 PUSH2 0x15A JUMP JUMPDEST DUP3 ADD SWAP2 SWAP1 PUSH1 0x0 MSTORE PUSH1 0x20 PUSH1 0x0 KECCAK256 SWAP1 JUMPDEST DUP2 SLOAD DUP2 MSTORE SWAP1 PUSH1 0x1 ADD SWAP1 PUSH1 0x20 ADD DUP1 DUP4 GT PUSH2 0x13D JUMPI DUP3 SWAP1 SUB PUSH1 0x1F AND DUP3 ADD SWAP2 JUMPDEST POP POP POP POP POP DUP2 JUMP JUMPDEST PUSH1 0x0 DUP1 SLOAD SWAP1 PUSH2 0x100 EXP SWAP1 DIV PUSH20 0xFFFFFFFFFFFFFFFFFFFFFFFFFFFFFFFFFFFFFFFF AND DUP2 JUMP JUMPDEST PUSH1 0x60 PUSH1 0x0 DUP1 SLOAD SWAP1 PUSH2 0x100 EXP SWAP1 DIV PUSH20 0xFFFFFFFFFFFFFFFFFFFFFFFFFFFFFFFFFFFFFFFF AND PUSH20 0xFFFFFFFFFFFFFFFFFFFFFFFFFFFFFFFFFFFFFFFF AND CALLER PUSH20 0xFFFFFFFFFFFFFFFFFFFFFFFFFFFFFFFFFFFFFFFF AND EQ PUSH2 0x216 JUMPI PUSH1 0x40 MLOAD PUSH32 0x8C379A000000000000000000000000000000000000000000000000000000000 DUP2 MSTORE PUSH1 0x4 ADD PUSH2 0x20D SWAP1 PUSH2 0x71D JUMP JUMPDEST PUSH1 0x40 MLOAD DUP1 SWAP2 SUB SWAP1 REVERT JUMPDEST PUSH1 0x0 DUP1 DUP6 PUSH20 0xFFFFFFFFFFFFFFFFFFFFFFFFFFFFFFFFFFFFFFFF AND DUP6 DUP6 PUSH1 0x40 MLOAD PUSH2 0x23F SWAP2 SWAP1 PUSH2 0x779 JUMP JUMPDEST PUSH1 0x0 PUSH1 0x40 MLOAD DUP1 DUP4 SUB DUP2 DUP6 DUP8 GAS CALL SWAP3 POP POP POP RETURNDATASIZE DUP1 PUSH1 0x0 DUP2 EQ PUSH2 0x27C JUMPI PUSH1 0x40 MLOAD SWAP2 POP PUSH1 0x1F NOT PUSH1 0x3F RETURNDATASIZE ADD AND DUP3 ADD PUSH1 0x40 MSTORE RETURNDATASIZE DUP3 MSTORE RETURNDATASIZE PUSH1 0x0 PUSH1 0x20 DUP5 ADD RETURNDATACOPY PUSH2 0x281 JUMP JUMPDEST PUSH1 0x60 SWAP2 POP JUMPDEST POP SWAP2 POP SWAP2 POP DUP2 PUSH2 0x2C6 JUMPI PUSH1 0x40 MLOAD PUSH32 0x8C379A000000000000000000000000000000000000000000000000000000000 DUP2 MSTORE PUSH1 0x4 ADD PUSH2 0x2BD SWAP1 PUSH2 0x7DC JUMP JUMPDEST PUSH1 0x40 MLOAD DUP1 SWAP2 SUB SWAP1 REVERT JUMPDEST DUP1 SWAP3 POP POP POP SWAP4 SWAP3 POP POP POP JUMP JUMPDEST PUSH1 0x0 DUP2 MLOAD SWAP1 POP SWAP2 SWAP1 POP JUMP JUMPDEST PUSH1 0x0 DUP3 DUP3 MSTORE PUSH1 0x20 DUP3 ADD SWAP1 POP SWAP3 SWAP2 POP POP JUMP JUMPDEST PUSH1 0x0 JUMPDEST DUP4 DUP2 LT ISZERO PUSH2 0x30C JUMPI DUP1 DUP3 ADD MLOAD DUP2 DUP5 ADD MSTORE PUSH1 0x20 DUP2 ADD SWAP1 POP PUSH2 0x2F1 JUMP JUMPDEST PUSH1 0x0 DUP5 DUP5 ADD MSTORE POP POP POP POP JUMP JUMPDEST PUSH1 0x0 PUSH1 0x1F NOT PUSH1 0x1F DUP4 ADD AND SWAP1 POP SWAP2 SWAP1 POP JUMP JUMPDEST PUSH1 0x0 PUSH2 0x334 DUP3 PUSH2 0x2D2 JUMP JUMPDEST PUSH2 0x33E DUP2 DUP6 PUSH2 0x2DD JUMP JUMPDEST SWAP4 POP PUSH2 0x34E DUP2 DUP6 PUSH1 0x20 DUP7 ADD PUSH2 0x2EE JUMP JUMPDEST PUSH2 0x357 DUP2 PUSH2 0x318 JUMP JUMPDEST DUP5 ADD SWAP2 POP POP SWAP3 SWAP2 POP POP JUMP JUMPDEST PUSH1 0x0 PUSH1 0x20 DUP3 ADD SWAP1 POP DUP2 DUP2 SUB PUSH1 0x0 DUP4 ADD MSTORE PUSH2 0x37C DUP2 DUP5 PUSH2 0x329 JUMP JUMPDEST SWAP1 POP SWAP3 SWAP2 POP POP JUMP JUMPDEST PUSH1 0x0 PUSH20 0xFFFFFFFFFFFFFFFFFFFFFFFFFFFFFFFFFFFFFFFF DUP3 AND SWAP1 POP SWAP2 SWAP1 POP JUMP JUMPDEST PUSH1 0x0 PUSH2 0x3AF DUP3 PUSH2 0x384 JUMP JUMPDEST SWAP1 POP SWAP2 SWAP1 POP JUMP JUMPDEST PUSH2 0x3BF DUP2 PUSH2 0x3A4 JUMP JUMPDEST DUP3 MSTORE POP POP JUMP JUMPDEST PUSH1 0x0 PUSH1 0x20 DUP3 ADD SWAP1 POP PUSH2 0x3DA PUSH1 0x0 DUP4 ADD DUP5 PUSH2 0x3B6 JUMP JUMPDEST SWAP3 SWAP2 POP POP JUMP JUMPDEST PUSH1 0x0 PUSH1 0x40 MLOAD SWAP1 POP SWAP1 JUMP JUMPDEST PUSH1 0x0 DUP1 REVERT JUMPDEST PUSH1 0x0 DUP1 REVERT JUMPDEST PUSH2 0x3FD DUP2 PUSH2 0x3A4 JUMP JUMPDEST DUP2 EQ PUSH2 0x408 JUMPI PUSH1 0x0 DUP1 REVERT JUMPDEST POP JUMP JUMPDEST PUSH1 0x0 DUP2 CALLDATALOAD SWAP1 POP PUSH2 0x41A DUP2 PUSH2 0x3F4 JUMP JUMPDEST SWAP3 SWAP2 POP POP JUMP JUMPDEST PUSH1 0x0 DUP2 SWAP1 POP SWAP2 SWAP1 POP JUMP JUMPDEST PUSH2 0x433 DUP2 PUSH2 0x420 JUMP JUMPDEST DUP2 EQ PUSH2 0x43E JUMPI PUSH1 0x0 DUP1 REVERT JUMPDEST POP JUMP JUMPDEST PUSH1 0x0 DUP2 CALLDATALOAD SWAP1 POP PUSH2 0x450 DUP2 PUSH2 0x42A JUMP JUMPDEST SWAP3 SWAP2 POP POP JUMP JUMPDEST PUSH1 0x0 DUP1 REVERT JUMPDEST PUSH1 0x0 DUP1 REVERT JUMPDEST PUSH32 0x4E487B7100000000000000000000000000000000000000000000000000000000 PUSH1 0x0 MSTORE PUSH1 0x41 PUSH1 0x4 MSTORE PUSH1 0x24 PUSH1 0x0 REVERT JUMPDEST PUSH2 0x498 DUP3 PUSH2 0x318 JUMP JUMPDEST DUP2 ADD DUP2 DUP2 LT PUSH8 0xFFFFFFFFFFFFFFFF DUP3 GT OR ISZERO PUSH2 0x4B7 JUMPI PUSH2 0x4B6 PUSH2 0x460 JUMP JUMPDEST JUMPDEST DUP1 PUSH1 0x40 MSTORE POP POP POP JUMP JUMPDEST PUSH1 0x0 PUSH2 0x4CA PUSH2 0x3E0 JUMP JUMPDEST SWAP1 POP PUSH2 0x4D6 DUP3 DUP3 PUSH2 0x48F JUMP JUMPDEST SWAP2 SWAP1 POP JUMP JUMPDEST PUSH1 0x0 PUSH8 0xFFFFFFFFFFFFFFFF DUP3 GT ISZERO PUSH2 0x4F6 JUMPI PUSH2 0x4F5 PUSH2 0x460 JUMP JUMPDEST JUMPDEST PUSH2 0x4FF DUP3 PUSH2 0x318 JUMP JUMPDEST SWAP1 POP PUSH1 0x20 DUP2 ADD SWAP1 POP SWAP2 SWAP1 POP JUMP JUMPDEST DUP3 DUP2 DUP4 CALLDATACOPY PUSH1 0x0 DUP4 DUP4 ADD MSTORE POP POP POP JUMP JUMPDEST PUSH1 0x0 PUSH2 0x52E PUSH2 0x529 DUP5 PUSH2 0x4DB JUMP JUMPDEST PUSH2 0x4C0 JUMP JUMPDEST SWAP1 POP DUP3 DUP2 MSTORE PUSH1 0x20 DUP2 ADD DUP5 DUP5 DUP5 ADD GT ISZERO PUSH2 0x54A JUMPI PUSH2 0x549 PUSH2 0x45B JUMP JUMPDEST JUMPDEST PUSH2 0x555 DUP5 DUP3 DUP6 PUSH2 0x50C JUMP JUMPDEST POP SWAP4 SWAP3 POP POP POP JUMP JUMPDEST PUSH1 0x0 DUP3 PUSH1 0x1F DUP4 ADD SLT PUSH2 0x572 JUMPI PUSH2 0x571 PUSH2 0x456 JUMP JUMPDEST JUMPDEST DUP2 CALLDATALOAD PUSH2 0x582 DUP5 DUP3 PUSH1 0x20 DUP7 ADD PUSH2 0x51B JUMP JUMPDEST SWAP2 POP POP SWAP3 SWAP2 POP POP JUMP JUMPDEST PUSH1 0x0 DUP1 PUSH1 0x0 PUSH1 0x60 DUP5 DUP7 SUB SLT ISZERO PUSH2 0x5A4 JUMPI PUSH2 0x5A3 PUSH2 0x3EA JUMP JUMPDEST JUMPDEST PUSH1 0x0 PUSH2 0x5B2 DUP7 DUP3 DUP8 ADD PUSH2 0x40B JUMP JUMPDEST SWAP4 POP POP PUSH1 0x20 PUSH2 0x5C3 DUP7 DUP3 DUP8 ADD PUSH2 0x441 JUMP JUMPDEST SWAP3 POP POP PUSH1 0x40 DUP5 ADD CALLDATALOAD PUSH8 0xFFFFFFFFFFFFFFFF DUP2 GT ISZERO PUSH2 0x5E4 JUMPI PUSH2 0x5E3 PUSH2 0x3EF JUMP JUMPDEST JUMPDEST PUSH2 0x5F0 DUP7 DUP3 DUP8 ADD PUSH2 0x55D JUMP JUMPDEST SWAP2 POP POP SWAP3 POP SWAP3 POP SWAP3 JUMP JUMPDEST PUSH1 0x0 DUP2 MLOAD SWAP1 POP SWAP2 SWAP1 POP JUMP JUMPDEST PUSH1 0x0 DUP3 DUP3 MSTORE PUSH1 0x20 DUP3 ADD SWAP1 POP SWAP3 SWAP2 POP POP JUMP JUMPDEST PUSH1 0x0 PUSH2 0x621 DUP3 PUSH2 0x5FA JUMP JUMPDEST PUSH2 0x62B DUP2 DUP6 PUSH2 0x605 JUMP JUMPDEST SWAP4 POP PUSH2 0x63B DUP2 DUP6 PUSH1 0x20 DUP7 ADD PUSH2 0x2EE JUMP JUMPDEST PUSH2 0x644 DUP2 PUSH2 0x318 JUMP JUMPDEST DUP5 ADD SWAP2 POP POP SWAP3 SWAP2 POP POP JUMP JUMPDEST PUSH1 0x0 PUSH1 0x20 DUP3 ADD SWAP1 POP DUP2 DUP2 SUB PUSH1 0x0 DUP4 ADD MSTORE PUSH2 0x669 DUP2 DUP5 PUSH2 0x616 JUMP JUMPDEST SWAP1 POP SWAP3 SWAP2 POP POP JUMP JUMPDEST PUSH32 0x4E487B7100000000000000000000000000000000000000000000000000000000 PUSH1 0x0 MSTORE PUSH1 0x22 PUSH1 0x4 MSTORE PUSH1 0x24 PUSH1 0x0 REVERT JUMPDEST PUSH1 0x0 PUSH1 0x2 DUP3 DIV SWAP1 POP PUSH1 0x1 DUP3 AND DUP1 PUSH2 0x6B8 JUMPI PUSH1 0x7F DUP3 AND SWAP2 POP JUMPDEST PUSH1 0x20 DUP3 LT DUP2 SUB PUSH2 0x6CB JUMPI PUSH2 0x6CA PUSH2 0x671 JUMP JUMPDEST JUMPDEST POP SWAP2 SWAP1 POP JUMP JUMPDEST PUSH32 0x6F6E6C7920666163746F72792063616E2063616C6C0000000000000000000000 PUSH1 0x0 DUP3 ADD MSTORE POP JUMP JUMPDEST PUSH1 0x0 PUSH2 0x707 PUSH1 0x15 DUP4 PUSH2 0x2DD JUMP JUMPDEST SWAP2 POP PUSH2 0x712 DUP3 PUSH2 0x6D1 JUMP JUMPDEST PUSH1 0x20 DUP3 ADD SWAP1 POP SWAP2 SWAP1 POP JUMP JUMPDEST PUSH1 0x0 PUSH1 0x20 DUP3 ADD SWAP1 POP DUP2 DUP2 SUB PUSH1 0x0 DUP4 ADD MSTORE PUSH2 0x736 DUP2 PUSH2 0x6FA JUMP JUMPDEST SWAP1 POP SWAP2 SWAP1 POP JUMP JUMPDEST PUSH1 0x0 DUP2 SWAP1 POP SWAP3 SWAP2 POP POP JUMP JUMPDEST PUSH1 0x0 PUSH2 0x753 DUP3 PUSH2 0x5FA JUMP JUMPDEST PUSH2 0x75D DUP2 DUP6 PUSH2 0x73D JUMP JUMPDEST SWAP4 POP PUSH2 0x76D DUP2 DUP6 PUSH1 0x20 DUP7 ADD PUSH2 0x2EE JUMP JUMPDEST DUP1 DUP5 ADD SWAP2 POP POP SWAP3 SWAP2 POP POP JUMP JUMPDEST PUSH1 0x0 PUSH2 0x785 DUP3 DUP5 PUSH2 0x748 JUMP JUMPDEST SWAP2 POP DUP2 SWAP1 POP SWAP3 SWAP2 POP POP JUMP JUMPDEST PUSH32 0x65787465726E616C2063616C6C20726576657274656400000000000000000000 PUSH1 0x0 DUP3 ADD MSTORE POP JUMP JUMPDEST PUSH1 0x0 PUSH2 0x7C6 PUSH1 0x16 DUP4 PUSH2 0x2DD JUMP JUMPDEST SWAP2 POP PUSH2 0x7D1 DUP3 PUSH2 0x790 JUMP JUMPDEST PUSH1 0x20 DUP3 ADD SWAP1 POP SWAP2 SWAP1 POP JUMP JUMPDEST PUSH1 0x0 PUSH1 0x20 DUP3 ADD SWAP1 POP DUP2 DUP2 SUB PUSH1 0x0 DUP4 ADD MSTORE PUSH2 0x7F5 DUP2 PUSH2 0x7B9 JUMP JUMPDEST SWAP1 POP SWAP2 SWAP1 POP JUMP INVALID LOG2 PUSH5 0x6970667358 0x22 SLT KECCAK256 OR LOG2 SWAP3 0xF6 0xBA 0xDA 0xA8 0x21 BASEFEE 0xF8 SDIV PREVRANDAO DIV MUL PUSH26 0x5B67B892167BCCE7B185D01D3C3AADF6A264736F6C6343000818 STOP CALLER LOG2 PUSH5 0x6970667358 0x22 SLT KECCAK256 PUSH9 0xBDCF1E784A4E47891 PUSH3 0xD73D41 0xDD GAS 0xB1 NUMBER OR 0xDF DUP15 0x2A STATICCALL 0xED EXTCODESIZE RETURN 0xF6 0x21 0xB5 0xF8 TLOAD DUP11 PUSH5 0x736F6C6343 STOP ADDMOD XOR STOP CALLER "
        },
        "methodIdentifiers": {
          "executeWalletTx(string,uint256,address,uint256,bytes,(uint256[2],uint256[2][2],uint256[2]))": "9ddd7cc6",
          "newWallet(string,uint256)": "660fc03b",
          "userPasswordHash(string)": "81fd65f3",
          "usernameInfo(string)": "80410c21",
          "verifierContract()": "cf695688"
        }
      }
    }
  }
}