{
  "_format": "hh-sol-artifact-1",
  "contractName": "Deposit",
  "sourceName": "contracts/mixer/deposit.sol",
  "abi": [
    {
      "inputs": [
        {
          "internalType": "address",
          "name": "_token",
          "type": "address"
        },
        {
          "internalType": "address",
          "name": "_outbox",
          "type": "address"
        }
      ],
      "stateMutability": "nonpayable",
      "type": "constructor"
    },
    {
      "inputs": [
        {
          "internalType": "uint256",
          "name": "amount",
          "type": "uint256"
        },
        {
          "internalType": "address",
          "name": "contractAddress",
          "type": "address"
        }
      ],
      "name": "burnAndMint",
      "outputs": [],
      "stateMutability": "nonpayable",
      "type": "function"
    }
  ],
  "bytecode": "0x6080604052627a31c7600160146101000a81548163ffffffff021916908363ffffffff16021790555034801561003457600080fd5b506040516106a73803806106a783398181016040528101906100569190610141565b816000806101000a81548173ffffffffffffffffffffffffffffffffffffffff021916908373ffffffffffffffffffffffffffffffffffffffff16021790555080600160006101000a81548173ffffffffffffffffffffffffffffffffffffffff021916908373ffffffffffffffffffffffffffffffffffffffff1602179055505050610181565b600080fd5b600073ffffffffffffffffffffffffffffffffffffffff82169050919050565b600061010e826100e3565b9050919050565b61011e81610103565b811461012957600080fd5b50565b60008151905061013b81610115565b92915050565b60008060408385031215610158576101576100de565b5b60006101668582860161012c565b92505060206101778582860161012c565b9150509250929050565b610517806101906000396000f3fe608060405234801561001057600080fd5b506004361061002b5760003560e01c8063e000cd6414610030575b600080fd5b61004a6004803603810190610045919061027b565b61004c565b005b60008260405160200161005f91906102ca565b6040516020818303038152906040529050600160009054906101000a900473ffffffffffffffffffffffffffffffffffffffff1673ffffffffffffffffffffffffffffffffffffffff1663fa31de01600160149054906101000a900463ffffffff168473ffffffffffffffffffffffffffffffffffffffff1660001b846040518463ffffffff1660e01b81526004016100fa939291906103ad565b6020604051808303816000875af1158015610119573d6000803e3d6000fd5b505050506040513d601f19601f8201168201806040525081019061013d9190610417565b5060008054906101000a900473ffffffffffffffffffffffffffffffffffffffff1673ffffffffffffffffffffffffffffffffffffffff16639dc29fac33856040518363ffffffff1660e01b8152600401610199929190610453565b6020604051808303816000875af11580156101b8573d6000803e3d6000fd5b505050506040513d601f19601f820116820180604052508101906101dc91906104b4565b50505050565b600080fd5b6000819050919050565b6101fa816101e7565b811461020557600080fd5b50565b600081359050610217816101f1565b92915050565b600073ffffffffffffffffffffffffffffffffffffffff82169050919050565b60006102488261021d565b9050919050565b6102588161023d565b811461026357600080fd5b50565b6000813590506102758161024f565b92915050565b60008060408385031215610292576102916101e2565b5b60006102a085828601610208565b92505060206102b185828601610266565b9150509250929050565b6102c4816101e7565b82525050565b60006020820190506102df60008301846102bb565b92915050565b600063ffffffff82169050919050565b6102fe816102e5565b82525050565b6000819050919050565b61031781610304565b82525050565b600081519050919050565b600082825260208201905092915050565b60005b8381101561035757808201518184015260208101905061033c565b60008484015250505050565b6000601f19601f8301169050919050565b600061037f8261031d565b6103898185610328565b9350610399818560208601610339565b6103a281610363565b840191505092915050565b60006060820190506103c260008301866102f5565b6103cf602083018561030e565b81810360408301526103e18184610374565b9050949350505050565b6103f481610304565b81146103ff57600080fd5b50565b600081519050610411816103eb565b92915050565b60006020828403121561042d5761042c6101e2565b5b600061043b84828501610402565b91505092915050565b61044d8161023d565b82525050565b60006040820190506104686000830185610444565b61047560208301846102bb565b9392505050565b60008115159050919050565b6104918161047c565b811461049c57600080fd5b50565b6000815190506104ae81610488565b92915050565b6000602082840312156104ca576104c96101e2565b5b60006104d88482850161049f565b9150509291505056fea2646970667358221220f4c05ad1a89b9faa0114c5868eb0491f4aa8d385abad8121328bb909292d48a764736f6c63430008180033",
  "linkReferences": {},
  "deployedLinkReferences": {}
}