{
  "_format": "hh-sol-artifact-1",
  "contractName": "mERC20",
  "sourceName": "contracts/mixer/mERC20.sol",
  "abi": [
    {
      "inputs": [
        {
          "internalType": "address",
          "name": "account",
          "type": "address"
        }
      ],
      "name": "balance",
      "outputs": [
        {
          "internalType": "uint256",
          "name": "",
          "type": "uint256"
        }
      ],
      "stateMutability": "view",
      "type": "function"
    },
    {
      "inputs": [
        {
          "internalType": "address",
          "name": "",
          "type": "address"
        }
      ],
      "name": "balanceOf",
      "outputs": [
        {
          "internalType": "uint256",
          "name": "",
          "type": "uint256"
        }
      ],
      "stateMutability": "view",
      "type": "function"
    },
    {
      "inputs": [
        {
          "internalType": "address",
          "name": "user",
          "type": "address"
        },
        {
          "internalType": "uint256",
          "name": "amount",
          "type": "uint256"
        }
      ],
      "name": "burn",
      "outputs": [
        {
          "internalType": "bool",
          "name": "",
          "type": "bool"
        }
      ],
      "stateMutability": "nonpayable",
      "type": "function"
    },
    {
      "inputs": [
        {
          "internalType": "address",
          "name": "recipient",
          "type": "address"
        },
        {
          "internalType": "uint256",
          "name": "amount",
          "type": "uint256"
        }
      ],
      "name": "mint",
      "outputs": [
        {
          "internalType": "bool",
          "name": "",
          "type": "bool"
        }
      ],
      "stateMutability": "nonpayable",
      "type": "function"
    }
  ],
  "bytecode": "0x608060405234801561001057600080fd5b50610466806100206000396000f3fe608060405234801561001057600080fd5b506004361061004c5760003560e01c806340c10f191461005157806370a08231146100815780639dc29fac146100b1578063e3d670d7146100e1575b600080fd5b61006b600480360381019061006691906102cc565b610111565b6040516100789190610327565b60405180910390f35b61009b60048036038101906100969190610342565b610172565b6040516100a8919061037e565b60405180910390f35b6100cb60048036038101906100c691906102cc565b61018a565b6040516100d89190610327565b60405180910390f35b6100fb60048036038101906100f69190610342565b6101eb565b604051610108919061037e565b60405180910390f35b6000816000808573ffffffffffffffffffffffffffffffffffffffff1673ffffffffffffffffffffffffffffffffffffffff168152602001908152602001600020600082825461016191906103c8565b925050819055506001905092915050565b60006020528060005260406000206000915090505481565b6000816000808573ffffffffffffffffffffffffffffffffffffffff1673ffffffffffffffffffffffffffffffffffffffff16815260200190815260200160002060008282546101da91906103fc565b925050819055506001905092915050565b60008060008373ffffffffffffffffffffffffffffffffffffffff1673ffffffffffffffffffffffffffffffffffffffff168152602001908152602001600020549050919050565b600080fd5b600073ffffffffffffffffffffffffffffffffffffffff82169050919050565b600061026382610238565b9050919050565b61027381610258565b811461027e57600080fd5b50565b6000813590506102908161026a565b92915050565b6000819050919050565b6102a981610296565b81146102b457600080fd5b50565b6000813590506102c6816102a0565b92915050565b600080604083850312156102e3576102e2610233565b5b60006102f185828601610281565b9250506020610302858286016102b7565b9150509250929050565b60008115159050919050565b6103218161030c565b82525050565b600060208201905061033c6000830184610318565b92915050565b60006020828403121561035857610357610233565b5b600061036684828501610281565b91505092915050565b61037881610296565b82525050565b6000602082019050610393600083018461036f565b92915050565b7f4e487b7100000000000000000000000000000000000000000000000000000000600052601160045260246000fd5b60006103d382610296565b91506103de83610296565b92508282019050808211156103f6576103f5610399565b5b92915050565b600061040782610296565b915061041283610296565b925082820390508181111561042a57610429610399565b5b9291505056fea26469706673582212200cb9a65d7a2d046d7e604fa25104117e6f96c2ac3fd659fb68576e14c2dab47264736f6c63430008180033",
  "linkReferences": {},
  "deployedLinkReferences": {}
}