{
  "_format": "hh-sol-artifact-1",
  "contractName": "ReceiverLinea",
  "sourceName": "contracts/mixer/receiver2.sol",
  "abi": [
    {
      "inputs": [
        {
          "internalType": "address",
          "name": "_token",
          "type": "address"
        }
      ],
      "stateMutability": "nonpayable",
      "type": "constructor"
    },
    {
      "inputs": [
        {
          "internalType": "uint32",
          "name": "_origin",
          "type": "uint32"
        },
        {
          "internalType": "bytes32",
          "name": "_sender",
          "type": "bytes32"
        },
        {
          "internalType": "bytes",
          "name": "_message",
          "type": "bytes"
        }
      ],
      "name": "handle",
      "outputs": [],
      "stateMutability": "nonpayable",
      "type": "function"
    }
  ],
  "bytecode": "0x608060405234801561001057600080fd5b506040516104e83803806104e8833981810160405281019061003291906100db565b806000806101000a81548173ffffffffffffffffffffffffffffffffffffffff021916908373ffffffffffffffffffffffffffffffffffffffff16021790555050610108565b600080fd5b600073ffffffffffffffffffffffffffffffffffffffff82169050919050565b60006100a88261007d565b9050919050565b6100b88161009d565b81146100c357600080fd5b50565b6000815190506100d5816100af565b92915050565b6000602082840312156100f1576100f0610078565b5b60006100ff848285016100c6565b91505092915050565b6103d1806101176000396000f3fe608060405234801561001057600080fd5b506004361061002b5760003560e01c806356d5d47514610030575b600080fd5b61004a600480360381019061004591906101e6565b61004c565b005b6000828281019061005d9190610290565b905060008054906101000a900473ffffffffffffffffffffffffffffffffffffffff1673ffffffffffffffffffffffffffffffffffffffff166340c10f1933836040518363ffffffff1660e01b81526004016100ba92919061030d565b6020604051808303816000875af11580156100d9573d6000803e3d6000fd5b505050506040513d601f19601f820116820180604052508101906100fd919061036e565b505050505050565b600080fd5b600080fd5b600063ffffffff82169050919050565b6101288161010f565b811461013357600080fd5b50565b6000813590506101458161011f565b92915050565b6000819050919050565b61015e8161014b565b811461016957600080fd5b50565b60008135905061017b81610155565b92915050565b600080fd5b600080fd5b600080fd5b60008083601f8401126101a6576101a5610181565b5b8235905067ffffffffffffffff8111156101c3576101c2610186565b5b6020830191508360018202830111156101df576101de61018b565b5b9250929050565b60008060008060608587031215610200576101ff610105565b5b600061020e87828801610136565b945050602061021f8782880161016c565b935050604085013567ffffffffffffffff8111156102405761023f61010a565b5b61024c87828801610190565b925092505092959194509250565b6000819050919050565b61026d8161025a565b811461027857600080fd5b50565b60008135905061028a81610264565b92915050565b6000602082840312156102a6576102a5610105565b5b60006102b48482850161027b565b91505092915050565b600073ffffffffffffffffffffffffffffffffffffffff82169050919050565b60006102e8826102bd565b9050919050565b6102f8816102dd565b82525050565b6103078161025a565b82525050565b600060408201905061032260008301856102ef565b61032f60208301846102fe565b9392505050565b60008115159050919050565b61034b81610336565b811461035657600080fd5b50565b60008151905061036881610342565b92915050565b60006020828403121561038457610383610105565b5b600061039284828501610359565b9150509291505056fea2646970667358221220e9759cab098675f3fe581d3c24d7c39ba24d2da27b3236fc775368315b7a34e664736f6c63430008180033",
  "linkReferences": {},
  "deployedLinkReferences": {}
}