{
  "_format": "hh-sol-artifact-1",
  "contractName": "WalletFactory",
  "sourceName": "contracts/wallet/WalletFactory.sol",
  "abi": [
    {
      "inputs": [
        {
          "internalType": "address",
          "name": "_verifierContract",
          "type": "address"
        }
      ],
      "stateMutability": "nonpayable",
      "type": "constructor"
    },
    {
      "inputs": [
        {
          "internalType": "string",
          "name": "username",
          "type": "string"
        },
        {
          "internalType": "uint256",
          "name": "nonce",
          "type": "uint256"
        },
        {
          "internalType": "address",
          "name": "contractAddress",
          "type": "address"
        },
        {
          "internalType": "uint256",
          "name": "value",
          "type": "uint256"
        },
        {
          "internalType": "bytes",
          "name": "data",
          "type": "bytes"
        },
        {
          "components": [
            {
              "internalType": "uint256[2]",
              "name": "pa",
              "type": "uint256[2]"
            },
            {
              "internalType": "uint256[2][2]",
              "name": "pb",
              "type": "uint256[2][2]"
            },
            {
              "internalType": "uint256[2]",
              "name": "pc",
              "type": "uint256[2]"
            }
          ],
          "internalType": "struct WalletFactory.Proof",
          "name": "proof",
          "type": "tuple"
        }
      ],
      "name": "executeWalletTx",
      "outputs": [
        {
          "internalType": "bytes",
          "name": "",
          "type": "bytes"
        }
      ],
      "stateMutability": "nonpayable",
      "type": "function"
    },
    {
      "inputs": [
        {
          "internalType": "string",
          "name": "_username",
          "type": "string"
        },
        {
          "internalType": "uint256",
          "name": "_passwordHash",
          "type": "uint256"
        }
      ],
      "name": "newWallet",
      "outputs": [
        {
          "internalType": "address",
          "name": "",
          "type": "address"
        }
      ],
      "stateMutability": "nonpayable",
      "type": "function"
    },
    {
      "inputs": [
        {
          "internalType": "string",
          "name": "",
          "type": "string"
        }
      ],
      "name": "userPasswordHash",
      "outputs": [
        {
          "internalType": "uint256",
          "name": "",
          "type": "uint256"
        }
      ],
      "stateMutability": "view",
      "type": "function"
    },
    {
      "inputs": [
        {
          "internalType": "string",
          "name": "",
          "type": "string"
        }
      ],
      "name": "usernameInfo",
      "outputs": [
        {
          "internalType": "bool",
          "name": "registered",
          "type": "bool"
        },
        {
          "internalType": "address",
          "name": "walletAddress",
          "type": "address"
        }
      ],
      "stateMutability": "view",
      "type": "function"
    },
    {
      "inputs": [],
      "name": "verifierContract",
      "outputs": [
        {
          "internalType": "address",
          "name": "",
          "type": "address"
        }
      ],
      "stateMutability": "view",
      "type": "function"
    }
  ],
  "bytecode": "0x60806040523480156200001157600080fd5b50604051620024dd380380620024dd8339818101604052810190620000379190620000e9565b80600260006101000a81548173ffffffffffffffffffffffffffffffffffffffff021916908373ffffffffffffffffffffffffffffffffffffffff160217905550506200011b565b600080fd5b600073ffffffffffffffffffffffffffffffffffffffff82169050919050565b6000620000b18262000084565b9050919050565b620000c381620000a4565b8114620000cf57600080fd5b50565b600081519050620000e381620000b8565b92915050565b6000602082840312156200010257620001016200007f565b5b60006200011284828501620000d2565b91505092915050565b6123b2806200012b6000396000f3fe60806040523480156200001157600080fd5b50600436106200005e5760003560e01c8063660fc03b146200006357806380410c21146200009957806381fd65f314620000d05780639ddd7cc61462000106578063cf695688146200013c575b600080fd5b6200008160048036038101906200007b919062000958565b6200015e565b60405162000090919062000a03565b60405180910390f35b620000b76004803603810190620000b1919062000a20565b620002cf565b604051620000c792919062000a8e565b60405180910390f35b620000ee6004803603810190620000e8919062000a20565b62000336565b604051620000fd919062000acc565b60405180910390f35b6200012460048036038101906200011e919062000dd0565b62000364565b60405162000133919062000f34565b60405180910390f35b620001466200072c565b60405162000155919062000a03565b60405180910390f35b600080151560008460405162000175919062000fa5565b908152602001604051809103902060000160009054906101000a900460ff16151514620001d9576040517f08c379a0000000000000000000000000000000000000000000000000000000008152600401620001d0906200101f565b60405180910390fd5b6000620001e68462000752565b905060405180604001604052806001151581526020018273ffffffffffffffffffffffffffffffffffffffff1681525060008560405162000228919062000fa5565b908152602001604051809103902060008201518160000160006101000a81548160ff02191690831515021790555060208201518160000160016101000a81548173ffffffffffffffffffffffffffffffffffffffff021916908373ffffffffffffffffffffffffffffffffffffffff16021790555090505082600385604051620002b3919062000fa5565b9081526020016040518091039020819055508091505092915050565b6000818051602081018201805184825260208301602085012081835280955050505050506000915090508060000160009054906101000a900460ff16908060000160019054906101000a900473ffffffffffffffffffffffffffffffffffffffff16905082565b6003818051602081018201805184825260208301602085012081835280955050505050506000915090505481565b6060600115156000886040516200037c919062000fa5565b908152602001604051809103902060000160009054906101000a900460ff16151514620003e0576040517f08c379a0000000000000000000000000000000000000000000000000000000008152600401620003d79062001091565b60405180910390fd5b60001515600188604051620003f6919062000fa5565b9081526020016040518091039020600088815260200190815260200160002060009054906101000a900460ff1615151462000468576040517f08c379a00000000000000000000000000000000000000000000000000000000081526004016200045f9062001103565b60405180910390fd5b600080886040516200047b919062000fa5565b90815260200160405180910390206040518060400160405290816000820160009054906101000a900460ff161515151581526020016000820160019054906101000a900473ffffffffffffffffffffffffffffffffffffffff1673ffffffffffffffffffffffffffffffffffffffff1673ffffffffffffffffffffffffffffffffffffffff168152505090506000604051806040016040528060038b60405162000526919062000fa5565b90815260200160405180910390205481526020018981525090506000600260009054906101000a900473ffffffffffffffffffffffffffffffffffffffff1673ffffffffffffffffffffffffffffffffffffffff1663f5c9d69e866000015187602001518860400151866040518563ffffffff1660e01b8152600401620005b19493929190620012f8565b602060405180830381865afa158015620005cf573d6000803e3d6000fd5b505050506040513d601f19601f82011682018060405250810190620005f5919062001378565b9050806200063a576040517f08c379a00000000000000000000000000000000000000000000000000000000081526004016200063190620013fa565b60405180910390fd5b60008360200151905060008173ffffffffffffffffffffffffffffffffffffffff1663f48bf4c38b8b8b6040518463ffffffff1660e01b815260040162000684939291906200141c565b6000604051808303816000875af1158015620006a4573d6000803e3d6000fd5b505050506040513d6000823e3d601f19601f82011682018060405250810190620006cf9190620014de565b90506001808d604051620006e4919062000fa5565b908152602001604051809103902060008d815260200190815260200160002060006101000a81548160ff02191690831515021790555080955050505050509695505050505050565b600260009054906101000a900473ffffffffffffffffffffffffffffffffffffffff1681565b60008082604051620007649062000799565b62000770919062001570565b604051809103906000f0801580156200078d573d6000803e3d6000fd5b50905080915050919050565b610de8806200159583390190565b6000604051905090565b600080fd5b600080fd5b600080fd5b600080fd5b6000601f19601f8301169050919050565b7f4e487b7100000000000000000000000000000000000000000000000000000000600052604160045260246000fd5b6200081082620007c5565b810181811067ffffffffffffffff82111715620008325762000831620007d6565b5b80604052505050565b600062000847620007a7565b905062000855828262000805565b919050565b600067ffffffffffffffff821115620008785762000877620007d6565b5b6200088382620007c5565b9050602081019050919050565b82818337600083830152505050565b6000620008b6620008b0846200085a565b6200083b565b905082815260208101848484011115620008d557620008d4620007c0565b5b620008e284828562000890565b509392505050565b600082601f830112620009025762000901620007bb565b5b8135620009148482602086016200089f565b91505092915050565b6000819050919050565b62000932816200091d565b81146200093e57600080fd5b50565b600081359050620009528162000927565b92915050565b60008060408385031215620009725762000971620007b1565b5b600083013567ffffffffffffffff811115620009935762000992620007b6565b5b620009a185828601620008ea565b9250506020620009b48582860162000941565b9150509250929050565b600073ffffffffffffffffffffffffffffffffffffffff82169050919050565b6000620009eb82620009be565b9050919050565b620009fd81620009de565b82525050565b600060208201905062000a1a6000830184620009f2565b92915050565b60006020828403121562000a395762000a38620007b1565b5b600082013567ffffffffffffffff81111562000a5a5762000a59620007b6565b5b62000a6884828501620008ea565b91505092915050565b60008115159050919050565b62000a888162000a71565b82525050565b600060408201905062000aa5600083018562000a7d565b62000ab46020830184620009f2565b9392505050565b62000ac6816200091d565b82525050565b600060208201905062000ae3600083018462000abb565b92915050565b62000af481620009de565b811462000b0057600080fd5b50565b60008135905062000b148162000ae9565b92915050565b600067ffffffffffffffff82111562000b385762000b37620007d6565b5b62000b4382620007c5565b9050602081019050919050565b600062000b6762000b618462000b1a565b6200083b565b90508281526020810184848401111562000b865762000b85620007c0565b5b62000b9384828562000890565b509392505050565b600082601f83011262000bb35762000bb2620007bb565b5b813562000bc584826020860162000b50565b91505092915050565b600080fd5b600067ffffffffffffffff82111562000bf15762000bf0620007d6565b5b602082029050919050565b600080fd5b600062000c1862000c128462000bd3565b6200083b565b9050806020840283018581111562000c355762000c3462000bfc565b5b835b8181101562000c62578062000c4d888262000941565b84526020840193505060208101905062000c37565b5050509392505050565b600082601f83011262000c845762000c83620007bb565b5b600262000c9384828562000c01565b91505092915050565b600067ffffffffffffffff82111562000cba5762000cb9620007d6565b5b602082029050919050565b600062000cdc62000cd68462000c9c565b6200083b565b9050806040840283018581111562000cf95762000cf862000bfc565b5b835b8181101562000d26578062000d11888262000c6c565b84526020840193505060408101905062000cfb565b5050509392505050565b600082601f83011262000d485762000d47620007bb565b5b600262000d5784828562000cc5565b91505092915050565b6000610100828403121562000d7a5762000d7962000bce565b5b62000d8660606200083b565b9050600062000d988482850162000c6c565b600083015250604062000dae8482850162000d30565b60208301525060c062000dc48482850162000c6c565b60408301525092915050565b6000806000806000806101a0878903121562000df15762000df0620007b1565b5b600087013567ffffffffffffffff81111562000e125762000e11620007b6565b5b62000e2089828a01620008ea565b965050602062000e3389828a0162000941565b955050604062000e4689828a0162000b03565b945050606062000e5989828a0162000941565b935050608087013567ffffffffffffffff81111562000e7d5762000e7c620007b6565b5b62000e8b89828a0162000b9b565b92505060a062000e9e89828a0162000d60565b9150509295509295509295565b600081519050919050565b600082825260208201905092915050565b60005b8381101562000ee757808201518184015260208101905062000eca565b60008484015250505050565b600062000f008262000eab565b62000f0c818562000eb6565b935062000f1e81856020860162000ec7565b62000f2981620007c5565b840191505092915050565b6000602082019050818103600083015262000f50818462000ef3565b905092915050565b600081519050919050565b600081905092915050565b600062000f7b8262000f58565b62000f87818562000f63565b935062000f9981856020860162000ec7565b80840191505092915050565b600062000fb3828462000f6e565b915081905092915050565b600082825260208201905092915050565b7f557365726e616d6520616c726561647920757365640000000000000000000000600082015250565b60006200100760158362000fbe565b9150620010148262000fcf565b602082019050919050565b600060208201905081810360008301526200103a8162000ff8565b9050919050565b7f557365726e616d65206973206e6f742072656769737465726564000000000000600082015250565b600062001079601a8362000fbe565b9150620010868262001041565b602082019050919050565b60006020820190508181036000830152620010ac816200106a565b9050919050565b7f496e76616c6964206e6f6e636500000000000000000000000000000000000000600082015250565b6000620010eb600d8362000fbe565b9150620010f882620010b3565b602082019050919050565b600060208201905081810360008301526200111e81620010dc565b9050919050565b600060029050919050565b600081905092915050565b6000819050919050565b62001150816200091d565b82525050565b600062001164838362001145565b60208301905092915050565b6000602082019050919050565b620011888162001125565b62001194818462001130565b9250620011a1826200113b565b8060005b83811015620011d8578151620011bc878262001156565b9650620011c98362001170565b925050600181019050620011a5565b505050505050565b600060029050919050565b600081905092915050565b6000819050919050565b600081905092915050565b620012168162001125565b62001222818462001200565b92506200122f826200113b565b8060005b83811015620012665781516200124a878262001156565b9650620012578362001170565b92505060018101905062001233565b505050505050565b60006200127c83836200120b565b60408301905092915050565b6000602082019050919050565b620012a081620011e0565b620012ac8184620011eb565b9250620012b982620011f6565b8060005b83811015620012f0578151620012d487826200126e565b9650620012e18362001288565b925050600181019050620012bd565b505050505050565b6000610140820190506200131060008301876200117d565b6200131f604083018662001295565b6200132e60c08301856200117d565b6200133e6101008301846200117d565b95945050505050565b620013528162000a71565b81146200135e57600080fd5b50565b600081519050620013728162001347565b92915050565b600060208284031215620013915762001390620007b1565b5b6000620013a18482850162001361565b91505092915050565b7f7a6b534e41524b20766572696669636174696f6e206661696c65640000000000600082015250565b6000620013e2601b8362000fbe565b9150620013ef82620013aa565b602082019050919050565b600060208201905081810360008301526200141581620013d3565b9050919050565b6000606082019050620014336000830186620009f2565b62001442602083018562000abb565b818103604083015262001456818462000ef3565b9050949350505050565b600062001477620014718462000b1a565b6200083b565b905082815260208101848484011115620014965762001495620007c0565b5b620014a384828562000ec7565b509392505050565b600082601f830112620014c357620014c2620007bb565b5b8151620014d584826020860162001460565b91505092915050565b600060208284031215620014f757620014f6620007b1565b5b600082015167ffffffffffffffff811115620015185762001517620007b6565b5b6200152684828501620014ab565b91505092915050565b60006200153c8262000f58565b62001548818562000fbe565b93506200155a81856020860162000ec7565b6200156581620007c5565b840191505092915050565b600060208201905081810360008301526200158c81846200152f565b90509291505056fe60806040523480156200001157600080fd5b5060405162000de838038062000de8833981810160405281019062000037919062000223565b336000806101000a81548173ffffffffffffffffffffffffffffffffffffffff021916908373ffffffffffffffffffffffffffffffffffffffff1602179055508060019081620000889190620004bf565b5050620005a6565b6000604051905090565b600080fd5b600080fd5b600080fd5b600080fd5b6000601f19601f8301169050919050565b7f4e487b7100000000000000000000000000000000000000000000000000000000600052604160045260246000fd5b620000f982620000ae565b810181811067ffffffffffffffff821117156200011b576200011a620000bf565b5b80604052505050565b60006200013062000090565b90506200013e8282620000ee565b919050565b600067ffffffffffffffff821115620001615762000160620000bf565b5b6200016c82620000ae565b9050602081019050919050565b60005b83811015620001995780820151818401526020810190506200017c565b60008484015250505050565b6000620001bc620001b68462000143565b62000124565b905082815260208101848484011115620001db57620001da620000a9565b5b620001e884828562000179565b509392505050565b600082601f830112620002085762000207620000a4565b5b81516200021a848260208601620001a5565b91505092915050565b6000602082840312156200023c576200023b6200009a565b5b600082015167ffffffffffffffff8111156200025d576200025c6200009f565b5b6200026b84828501620001f0565b91505092915050565b600081519050919050565b7f4e487b7100000000000000000000000000000000000000000000000000000000600052602260045260246000fd5b60006002820490506001821680620002c757607f821691505b602082108103620002dd57620002dc6200027f565b5b50919050565b60008190508160005260206000209050919050565b60006020601f8301049050919050565b600082821b905092915050565b600060088302620003477fffffffffffffffffffffffffffffffffffffffffffffffffffffffffffffffff8262000308565b62000353868362000308565b95508019841693508086168417925050509392505050565b6000819050919050565b6000819050919050565b6000620003a06200039a62000394846200036b565b62000375565b6200036b565b9050919050565b6000819050919050565b620003bc836200037f565b620003d4620003cb82620003a7565b84845462000315565b825550505050565b600090565b620003eb620003dc565b620003f8818484620003b1565b505050565b5b81811015620004205762000414600082620003e1565b600181019050620003fe565b5050565b601f8211156200046f576200043981620002e3565b6200044484620002f8565b8101602085101562000454578190505b6200046c6200046385620002f8565b830182620003fd565b50505b505050565b600082821c905092915050565b6000620004946000198460080262000474565b1980831691505092915050565b6000620004af838362000481565b9150826002028217905092915050565b620004ca8262000274565b67ffffffffffffffff811115620004e657620004e5620000bf565b5b620004f28254620002ae565b620004ff82828562000424565b600060209050601f83116001811462000537576000841562000522578287015190505b6200052e8582620004a1565b8655506200059e565b601f1984166200054786620002e3565b60005b8281101562000571578489015182556001820191506020850194506020810190506200054a565b868310156200059157848901516200058d601f89168262000481565b8355505b6001600288020188555050505b505050505050565b61083280620005b66000396000f3fe6080604052600436106100385760003560e01c806361fac54d14610041578063966dae0e1461006c578063f48bf4c3146100975761003f565b3661003f57005b005b34801561004d57600080fd5b506100566100d4565b6040516100639190610362565b60405180910390f35b34801561007857600080fd5b50610081610162565b60405161008e91906103c5565b60405180910390f35b3480156100a357600080fd5b506100be60048036038101906100b9919061058b565b610186565b6040516100cb919061064f565b60405180910390f35b600180546100e1906106a0565b80601f016020809104026020016040519081016040528092919081815260200182805461010d906106a0565b801561015a5780601f1061012f5761010080835404028352916020019161015a565b820191906000526020600020905b81548152906001019060200180831161013d57829003601f168201915b505050505081565b60008054906101000a900473ffffffffffffffffffffffffffffffffffffffff1681565b606060008054906101000a900473ffffffffffffffffffffffffffffffffffffffff1673ffffffffffffffffffffffffffffffffffffffff163373ffffffffffffffffffffffffffffffffffffffff1614610216576040517f08c379a000000000000000000000000000000000000000000000000000000000815260040161020d9061071d565b60405180910390fd5b6000808573ffffffffffffffffffffffffffffffffffffffff16858560405161023f9190610779565b60006040518083038185875af1925050503d806000811461027c576040519150601f19603f3d011682016040523d82523d6000602084013e610281565b606091505b5091509150816102c6576040517f08c379a00000000000000000000000000000000000000000000000000000000081526004016102bd906107dc565b60405180910390fd5b80925050509392505050565b600081519050919050565b600082825260208201905092915050565b60005b8381101561030c5780820151818401526020810190506102f1565b60008484015250505050565b6000601f19601f8301169050919050565b6000610334826102d2565b61033e81856102dd565b935061034e8185602086016102ee565b61035781610318565b840191505092915050565b6000602082019050818103600083015261037c8184610329565b905092915050565b600073ffffffffffffffffffffffffffffffffffffffff82169050919050565b60006103af82610384565b9050919050565b6103bf816103a4565b82525050565b60006020820190506103da60008301846103b6565b92915050565b6000604051905090565b600080fd5b600080fd5b6103fd816103a4565b811461040857600080fd5b50565b60008135905061041a816103f4565b92915050565b6000819050919050565b61043381610420565b811461043e57600080fd5b50565b6000813590506104508161042a565b92915050565b600080fd5b600080fd5b7f4e487b7100000000000000000000000000000000000000000000000000000000600052604160045260246000fd5b61049882610318565b810181811067ffffffffffffffff821117156104b7576104b6610460565b5b80604052505050565b60006104ca6103e0565b90506104d6828261048f565b919050565b600067ffffffffffffffff8211156104f6576104f5610460565b5b6104ff82610318565b9050602081019050919050565b82818337600083830152505050565b600061052e610529846104db565b6104c0565b90508281526020810184848401111561054a5761054961045b565b5b61055584828561050c565b509392505050565b600082601f83011261057257610571610456565b5b813561058284826020860161051b565b91505092915050565b6000806000606084860312156105a4576105a36103ea565b5b60006105b28682870161040b565b93505060206105c386828701610441565b925050604084013567ffffffffffffffff8111156105e4576105e36103ef565b5b6105f08682870161055d565b9150509250925092565b600081519050919050565b600082825260208201905092915050565b6000610621826105fa565b61062b8185610605565b935061063b8185602086016102ee565b61064481610318565b840191505092915050565b600060208201905081810360008301526106698184610616565b905092915050565b7f4e487b7100000000000000000000000000000000000000000000000000000000600052602260045260246000fd5b600060028204905060018216806106b857607f821691505b6020821081036106cb576106ca610671565b5b50919050565b7f6f6e6c7920666163746f72792063616e2063616c6c0000000000000000000000600082015250565b60006107076015836102dd565b9150610712826106d1565b602082019050919050565b60006020820190508181036000830152610736816106fa565b9050919050565b600081905092915050565b6000610753826105fa565b61075d818561073d565b935061076d8185602086016102ee565b80840191505092915050565b60006107858284610748565b915081905092915050565b7f65787465726e616c2063616c6c20726576657274656400000000000000000000600082015250565b60006107c66016836102dd565b91506107d182610790565b602082019050919050565b600060208201905081810360008301526107f5816107b9565b905091905056fea264697066735822122017a292f6badaa82148f805440402795b67b892167bcce7b185d01d3c3aadf6a264736f6c63430008180033a2646970667358221220680bdcf1e784a4e4789162d73d41dd5ab14317df8e2afaed3bf3f621b5f85c8a64736f6c63430008180033",
  "linkReferences": {},
  "deployedLinkReferences": {}
}